{
	"voting.sol": {
		"Voting": {
			"abi": [
				{
					"inputs": [
						{
							"internalType": "bytes32[]",
							"name": "candidateNames",
							"type": "bytes32[]"
						},
						{
							"internalType": "uint256",
							"name": "durationInHours",
							"type": "uint256"
						}
					],
					"stateMutability": "nonpayable",
					"type": "constructor"
				},
				{
					"inputs": [
						{
							"internalType": "uint256",
							"name": "",
							"type": "uint256"
						}
					],
					"name": "candidateList",
					"outputs": [
						{
							"internalType": "bytes32",
							"name": "",
							"type": "bytes32"
						}
					],
					"stateMutability": "view",
					"type": "function"
				},
				{
					"inputs": [],
					"name": "getWinner",
					"outputs": [
						{
							"internalType": "bytes32",
							"name": "",
							"type": "bytes32"
						}
					],
					"stateMutability": "view",
					"type": "function"
				},
				{
					"inputs": [
						{
							"internalType": "address",
							"name": "",
							"type": "address"
						}
					],
					"name": "hasVoted",
					"outputs": [
						{
							"internalType": "bool",
							"name": "",
							"type": "bool"
						}
					],
					"stateMutability": "view",
					"type": "function"
				},
				{
					"inputs": [],
					"name": "timeLeft",
					"outputs": [
						{
							"internalType": "uint256",
							"name": "",
							"type": "uint256"
						}
					],
					"stateMutability": "view",
					"type": "function"
				},
				{
					"inputs": [
						{
							"internalType": "bytes32",
							"name": "candidate",
							"type": "bytes32"
						}
					],
					"name": "totalVotesFor",
					"outputs": [
						{
							"internalType": "uint8",
							"name": "",
							"type": "uint8"
						}
					],
					"stateMutability": "view",
					"type": "function"
				},
				{
					"inputs": [
						{
							"internalType": "bytes32",
							"name": "candidate",
							"type": "bytes32"
						}
					],
					"name": "validCandidate",
					"outputs": [
						{
							"internalType": "bool",
							"name": "",
							"type": "bool"
						}
					],
					"stateMutability": "view",
					"type": "function"
				},
				{
					"inputs": [
						{
							"internalType": "bytes32",
							"name": "candidate",
							"type": "bytes32"
						}
					],
					"name": "voteForCandidate",
					"outputs": [],
					"stateMutability": "nonpayable",
					"type": "function"
				},
				{
					"inputs": [
						{
							"internalType": "bytes32",
							"name": "",
							"type": "bytes32"
						}
					],
					"name": "votesReceived",
					"outputs": [
						{
							"internalType": "uint8",
							"name": "",
							"type": "uint8"
						}
					],
					"stateMutability": "view",
					"type": "function"
				},
				{
					"inputs": [],
					"name": "votingDeadline",
					"outputs": [
						{
							"internalType": "uint256",
							"name": "",
							"type": "uint256"
						}
					],
					"stateMutability": "view",
					"type": "function"
				}
			],
			"devdoc": {
				"kind": "dev",
				"methods": {},
				"version": 1
			},
			"evm": {
				"assembly": "    /* \"voting.sol\":132:2697  contract Voting {... */\n  mstore(0x40, 0x80)\n    /* \"voting.sol\":945:1125  constructor(bytes32[] memory candidateNames, uint durationInHours) {... */\n  callvalue\n  dup1\n  iszero\n  tag_1\n  jumpi\n  revert(0x00, 0x00)\ntag_1:\n  pop\n  mload(0x40)\n  sub(codesize, bytecodeSize)\n  dup1\n  bytecodeSize\n  dup4\n  codecopy\n  dup2\n  dup2\n  add\n  0x40\n  mstore\n  dup2\n  add\n  swap1\n  tag_2\n  swap2\n  swap1\n  tag_3\n  jump\t// in\ntag_2:\n    /* \"voting.sol\":1034:1048  candidateNames */\n  dup2\n    /* \"voting.sol\":1018:1031  candidateList */\n  0x01\n    /* \"voting.sol\":1018:1048  candidateList = candidateNames */\n  swap1\n  dup1\n  mload\n  swap1\n  0x20\n  add\n  swap1\n  tag_6\n  swap3\n  swap2\n  swap1\n  tag_7\n  jump\t// in\ntag_6:\n  pop\n    /* \"voting.sol\":1105:1120  durationInHours */\n  dup1\n    /* \"voting.sol\":1087:1102  block.timestamp */\n  timestamp\n    /* \"voting.sol\":1087:1120  block.timestamp + durationInHours */\n  tag_8\n  swap2\n  swap1\n  tag_9\n  jump\t// in\ntag_8:\n    /* \"voting.sol\":1070:1084  votingDeadline */\n  0x03\n    /* \"voting.sol\":1070:1120  votingDeadline = block.timestamp + durationInHours */\n  dup2\n  swap1\n  sstore\n  pop\n    /* \"voting.sol\":945:1125  constructor(bytes32[] memory candidateNames, uint durationInHours) {... */\n  pop\n  pop\n    /* \"voting.sol\":132:2697  contract Voting {... */\n  jump(tag_10)\ntag_7:\n  dup3\n  dup1\n  sload\n  dup3\n  dup3\n  sstore\n  swap1\n  0x00\n  mstore\n  keccak256(0x00, 0x20)\n  swap1\n  dup2\n  add\n  swap3\n  dup3\n  iszero\n  tag_11\n  jumpi\n  swap2\n  0x20\n  mul\n  dup3\n  add\ntag_12:\n  dup3\n  dup2\n  gt\n  iszero\n  tag_13\n  jumpi\n  dup3\n  mload\n  dup3\n  sstore\n  swap2\n  0x20\n  add\n  swap2\n  swap1\n  0x01\n  add\n  swap1\n  jump(tag_12)\ntag_13:\ntag_11:\n  pop\n  swap1\n  pop\n  tag_14\n  swap2\n  swap1\n  tag_15\n  jump\t// in\ntag_14:\n  pop\n  swap1\n  jump\t// out\ntag_15:\ntag_16:\n  dup1\n  dup3\n  gt\n  iszero\n  tag_17\n  jumpi\n  0x00\n  dup2\n  0x00\n  swap1\n  sstore\n  pop\n  0x01\n  add\n  jump(tag_16)\ntag_17:\n  pop\n  swap1\n  jump\t// out\n    /* \"#utility.yul\":7:82   */\ntag_18:\n    /* \"#utility.yul\":40:46   */\n  0x00\n    /* \"#utility.yul\":73:75   */\n  0x40\n    /* \"#utility.yul\":67:76   */\n  mload\n    /* \"#utility.yul\":57:76   */\n  swap1\n  pop\n    /* \"#utility.yul\":7:82   */\n  swap1\n  jump\t// out\n    /* \"#utility.yul\":88:205   */\ntag_19:\n    /* \"#utility.yul\":197:198   */\n  0x00\n    /* \"#utility.yul\":194:195   */\n  0x00\n    /* \"#utility.yul\":187:199   */\n  revert\n    /* \"#utility.yul\":211:328   */\ntag_20:\n    /* \"#utility.yul\":320:321   */\n  0x00\n    /* \"#utility.yul\":317:318   */\n  0x00\n    /* \"#utility.yul\":310:322   */\n  revert\n    /* \"#utility.yul\":334:451   */\ntag_21:\n    /* \"#utility.yul\":443:444   */\n  0x00\n    /* \"#utility.yul\":440:441   */\n  0x00\n    /* \"#utility.yul\":433:445   */\n  revert\n    /* \"#utility.yul\":457:559   */\ntag_22:\n    /* \"#utility.yul\":498:504   */\n  0x00\n    /* \"#utility.yul\":549:551   */\n  0x1f\n    /* \"#utility.yul\":545:552   */\n  not\n    /* \"#utility.yul\":540:542   */\n  0x1f\n    /* \"#utility.yul\":533:538   */\n  dup4\n    /* \"#utility.yul\":529:543   */\n  add\n    /* \"#utility.yul\":525:553   */\n  and\n    /* \"#utility.yul\":515:553   */\n  swap1\n  pop\n    /* \"#utility.yul\":457:559   */\n  swap2\n  swap1\n  pop\n  jump\t// out\n    /* \"#utility.yul\":565:745   */\ntag_23:\n    /* \"#utility.yul\":613:690   */\n  0x4e487b7100000000000000000000000000000000000000000000000000000000\n    /* \"#utility.yul\":610:611   */\n  0x00\n    /* \"#utility.yul\":603:691   */\n  mstore\n    /* \"#utility.yul\":710:714   */\n  0x41\n    /* \"#utility.yul\":707:708   */\n  0x04\n    /* \"#utility.yul\":700:715   */\n  mstore\n    /* \"#utility.yul\":734:738   */\n  0x24\n    /* \"#utility.yul\":731:732   */\n  0x00\n    /* \"#utility.yul\":724:739   */\n  revert\n    /* \"#utility.yul\":751:1032   */\ntag_24:\n    /* \"#utility.yul\":834:861   */\n  tag_45\n    /* \"#utility.yul\":856:860   */\n  dup3\n    /* \"#utility.yul\":834:861   */\n  tag_22\n  jump\t// in\ntag_45:\n    /* \"#utility.yul\":826:832   */\n  dup2\n    /* \"#utility.yul\":822:862   */\n  add\n    /* \"#utility.yul\":964:970   */\n  dup2\n    /* \"#utility.yul\":952:962   */\n  dup2\n    /* \"#utility.yul\":949:971   */\n  lt\n    /* \"#utility.yul\":928:946   */\n  0xffffffffffffffff\n    /* \"#utility.yul\":916:926   */\n  dup3\n    /* \"#utility.yul\":913:947   */\n  gt\n    /* \"#utility.yul\":910:972   */\n  or\n    /* \"#utility.yul\":907:995   */\n  iszero\n  tag_46\n  jumpi\n    /* \"#utility.yul\":975:993   */\n  tag_47\n  tag_23\n  jump\t// in\ntag_47:\n    /* \"#utility.yul\":907:995   */\ntag_46:\n    /* \"#utility.yul\":1015:1025   */\n  dup1\n    /* \"#utility.yul\":1011:1013   */\n  0x40\n    /* \"#utility.yul\":1004:1026   */\n  mstore\n    /* \"#utility.yul\":794:1032   */\n  pop\n    /* \"#utility.yul\":751:1032   */\n  pop\n  pop\n  jump\t// out\n    /* \"#utility.yul\":1038:1167   */\ntag_25:\n    /* \"#utility.yul\":1072:1078   */\n  0x00\n    /* \"#utility.yul\":1099:1119   */\n  tag_49\n  tag_18\n  jump\t// in\ntag_49:\n    /* \"#utility.yul\":1089:1119   */\n  swap1\n  pop\n    /* \"#utility.yul\":1128:1161   */\n  tag_50\n    /* \"#utility.yul\":1156:1160   */\n  dup3\n    /* \"#utility.yul\":1148:1154   */\n  dup3\n    /* \"#utility.yul\":1128:1161   */\n  tag_24\n  jump\t// in\ntag_50:\n    /* \"#utility.yul\":1038:1167   */\n  swap2\n  swap1\n  pop\n  jump\t// out\n    /* \"#utility.yul\":1173:1484   */\ntag_26:\n    /* \"#utility.yul\":1250:1254   */\n  0x00\n    /* \"#utility.yul\":1340:1358   */\n  0xffffffffffffffff\n    /* \"#utility.yul\":1332:1338   */\n  dup3\n    /* \"#utility.yul\":1329:1359   */\n  gt\n    /* \"#utility.yul\":1326:1382   */\n  iszero\n  tag_52\n  jumpi\n    /* \"#utility.yul\":1362:1380   */\n  tag_53\n  tag_23\n  jump\t// in\ntag_53:\n    /* \"#utility.yul\":1326:1382   */\ntag_52:\n    /* \"#utility.yul\":1412:1416   */\n  0x20\n    /* \"#utility.yul\":1404:1410   */\n  dup3\n    /* \"#utility.yul\":1400:1417   */\n  mul\n    /* \"#utility.yul\":1392:1417   */\n  swap1\n  pop\n    /* \"#utility.yul\":1472:1476   */\n  0x20\n    /* \"#utility.yul\":1466:1470   */\n  dup2\n    /* \"#utility.yul\":1462:1477   */\n  add\n    /* \"#utility.yul\":1454:1477   */\n  swap1\n  pop\n    /* \"#utility.yul\":1173:1484   */\n  swap2\n  swap1\n  pop\n  jump\t// out\n    /* \"#utility.yul\":1490:1607   */\ntag_27:\n    /* \"#utility.yul\":1599:1600   */\n  0x00\n    /* \"#utility.yul\":1596:1597   */\n  0x00\n    /* \"#utility.yul\":1589:1601   */\n  revert\n    /* \"#utility.yul\":1613:1690   */\ntag_28:\n    /* \"#utility.yul\":1650:1657   */\n  0x00\n    /* \"#utility.yul\":1679:1684   */\n  dup2\n    /* \"#utility.yul\":1668:1684   */\n  swap1\n  pop\n    /* \"#utility.yul\":1613:1690   */\n  swap2\n  swap1\n  pop\n  jump\t// out\n    /* \"#utility.yul\":1696:1818   */\ntag_29:\n    /* \"#utility.yul\":1769:1793   */\n  tag_57\n    /* \"#utility.yul\":1787:1792   */\n  dup2\n    /* \"#utility.yul\":1769:1793   */\n  tag_28\n  jump\t// in\ntag_57:\n    /* \"#utility.yul\":1762:1767   */\n  dup2\n    /* \"#utility.yul\":1759:1794   */\n  eq\n    /* \"#utility.yul\":1749:1812   */\n  tag_58\n  jumpi\n    /* \"#utility.yul\":1808:1809   */\n  0x00\n    /* \"#utility.yul\":1805:1806   */\n  0x00\n    /* \"#utility.yul\":1798:1810   */\n  revert\n    /* \"#utility.yul\":1749:1812   */\ntag_58:\n    /* \"#utility.yul\":1696:1818   */\n  pop\n  jump\t// out\n    /* \"#utility.yul\":1824:1967   */\ntag_30:\n    /* \"#utility.yul\":1881:1886   */\n  0x00\n    /* \"#utility.yul\":1912:1918   */\n  dup2\n    /* \"#utility.yul\":1906:1919   */\n  mload\n    /* \"#utility.yul\":1897:1919   */\n  swap1\n  pop\n    /* \"#utility.yul\":1928:1961   */\n  tag_60\n    /* \"#utility.yul\":1955:1960   */\n  dup2\n    /* \"#utility.yul\":1928:1961   */\n  tag_29\n  jump\t// in\ntag_60:\n    /* \"#utility.yul\":1824:1967   */\n  swap3\n  swap2\n  pop\n  pop\n  jump\t// out\n    /* \"#utility.yul\":1990:2722   */\ntag_31:\n    /* \"#utility.yul\":2097:2102   */\n  0x00\n    /* \"#utility.yul\":2122:2203   */\n  tag_62\n    /* \"#utility.yul\":2138:2202   */\n  tag_63\n    /* \"#utility.yul\":2195:2201   */\n  dup5\n    /* \"#utility.yul\":2138:2202   */\n  tag_26\n  jump\t// in\ntag_63:\n    /* \"#utility.yul\":2122:2203   */\n  tag_25\n  jump\t// in\ntag_62:\n    /* \"#utility.yul\":2113:2203   */\n  swap1\n  pop\n    /* \"#utility.yul\":2223:2228   */\n  dup1\n    /* \"#utility.yul\":2252:2258   */\n  dup4\n    /* \"#utility.yul\":2245:2250   */\n  dup3\n    /* \"#utility.yul\":2238:2259   */\n  mstore\n    /* \"#utility.yul\":2286:2290   */\n  0x20\n    /* \"#utility.yul\":2279:2284   */\n  dup3\n    /* \"#utility.yul\":2275:2291   */\n  add\n    /* \"#utility.yul\":2268:2291   */\n  swap1\n  pop\n    /* \"#utility.yul\":2339:2343   */\n  0x20\n    /* \"#utility.yul\":2331:2337   */\n  dup5\n    /* \"#utility.yul\":2327:2344   */\n  mul\n    /* \"#utility.yul\":2319:2325   */\n  dup4\n    /* \"#utility.yul\":2315:2345   */\n  add\n    /* \"#utility.yul\":2368:2371   */\n  dup6\n    /* \"#utility.yul\":2360:2366   */\n  dup2\n    /* \"#utility.yul\":2357:2372   */\n  gt\n    /* \"#utility.yul\":2354:2476   */\n  iszero\n  tag_64\n  jumpi\n    /* \"#utility.yul\":2387:2466   */\n  tag_65\n  tag_27\n  jump\t// in\ntag_65:\n    /* \"#utility.yul\":2354:2476   */\ntag_64:\n    /* \"#utility.yul\":2502:2508   */\n  dup4\n    /* \"#utility.yul\":2485:2716   */\ntag_66:\n    /* \"#utility.yul\":2519:2525   */\n  dup2\n    /* \"#utility.yul\":2514:2517   */\n  dup2\n    /* \"#utility.yul\":2511:2526   */\n  lt\n    /* \"#utility.yul\":2485:2716   */\n  iszero\n  tag_68\n  jumpi\n    /* \"#utility.yul\":2594:2597   */\n  dup1\n    /* \"#utility.yul\":2623:2671   */\n  tag_69\n    /* \"#utility.yul\":2667:2670   */\n  dup9\n    /* \"#utility.yul\":2655:2665   */\n  dup3\n    /* \"#utility.yul\":2623:2671   */\n  tag_30\n  jump\t// in\ntag_69:\n    /* \"#utility.yul\":2618:2621   */\n  dup5\n    /* \"#utility.yul\":2611:2672   */\n  mstore\n    /* \"#utility.yul\":2701:2705   */\n  0x20\n    /* \"#utility.yul\":2696:2699   */\n  dup5\n    /* \"#utility.yul\":2692:2706   */\n  add\n    /* \"#utility.yul\":2685:2706   */\n  swap4\n  pop\n    /* \"#utility.yul\":2561:2716   */\n  pop\n    /* \"#utility.yul\":2545:2549   */\n  0x20\n    /* \"#utility.yul\":2540:2543   */\n  dup2\n    /* \"#utility.yul\":2536:2550   */\n  add\n    /* \"#utility.yul\":2529:2550   */\n  swap1\n  pop\n    /* \"#utility.yul\":2485:2716   */\n  jump(tag_66)\ntag_68:\n    /* \"#utility.yul\":2489:2510   */\n  pop\n    /* \"#utility.yul\":2103:2722   */\n  pop\n  pop\n    /* \"#utility.yul\":1990:2722   */\n  swap4\n  swap3\n  pop\n  pop\n  pop\n  jump\t// out\n    /* \"#utility.yul\":2745:3130   */\ntag_32:\n    /* \"#utility.yul\":2827:2832   */\n  0x00\n    /* \"#utility.yul\":2876:2879   */\n  dup3\n    /* \"#utility.yul\":2869:2873   */\n  0x1f\n    /* \"#utility.yul\":2861:2867   */\n  dup4\n    /* \"#utility.yul\":2857:2874   */\n  add\n    /* \"#utility.yul\":2853:2880   */\n  slt\n    /* \"#utility.yul\":2843:2965   */\n  tag_71\n  jumpi\n    /* \"#utility.yul\":2884:2963   */\n  tag_72\n  tag_21\n  jump\t// in\ntag_72:\n    /* \"#utility.yul\":2843:2965   */\ntag_71:\n    /* \"#utility.yul\":2994:3000   */\n  dup2\n    /* \"#utility.yul\":2988:3001   */\n  mload\n    /* \"#utility.yul\":3019:3124   */\n  tag_73\n    /* \"#utility.yul\":3120:3123   */\n  dup5\n    /* \"#utility.yul\":3112:3118   */\n  dup3\n    /* \"#utility.yul\":3105:3109   */\n  0x20\n    /* \"#utility.yul\":3097:3103   */\n  dup7\n    /* \"#utility.yul\":3093:3110   */\n  add\n    /* \"#utility.yul\":3019:3124   */\n  tag_31\n  jump\t// in\ntag_73:\n    /* \"#utility.yul\":3010:3124   */\n  swap2\n  pop\n    /* \"#utility.yul\":2833:3130   */\n  pop\n    /* \"#utility.yul\":2745:3130   */\n  swap3\n  swap2\n  pop\n  pop\n  jump\t// out\n    /* \"#utility.yul\":3136:3213   */\ntag_33:\n    /* \"#utility.yul\":3173:3180   */\n  0x00\n    /* \"#utility.yul\":3202:3207   */\n  dup2\n    /* \"#utility.yul\":3191:3207   */\n  swap1\n  pop\n    /* \"#utility.yul\":3136:3213   */\n  swap2\n  swap1\n  pop\n  jump\t// out\n    /* \"#utility.yul\":3219:3341   */\ntag_34:\n    /* \"#utility.yul\":3292:3316   */\n  tag_76\n    /* \"#utility.yul\":3310:3315   */\n  dup2\n    /* \"#utility.yul\":3292:3316   */\n  tag_33\n  jump\t// in\ntag_76:\n    /* \"#utility.yul\":3285:3290   */\n  dup2\n    /* \"#utility.yul\":3282:3317   */\n  eq\n    /* \"#utility.yul\":3272:3335   */\n  tag_77\n  jumpi\n    /* \"#utility.yul\":3331:3332   */\n  0x00\n    /* \"#utility.yul\":3328:3329   */\n  0x00\n    /* \"#utility.yul\":3321:3333   */\n  revert\n    /* \"#utility.yul\":3272:3335   */\ntag_77:\n    /* \"#utility.yul\":3219:3341   */\n  pop\n  jump\t// out\n    /* \"#utility.yul\":3347:3490   */\ntag_35:\n    /* \"#utility.yul\":3404:3409   */\n  0x00\n    /* \"#utility.yul\":3435:3441   */\n  dup2\n    /* \"#utility.yul\":3429:3442   */\n  mload\n    /* \"#utility.yul\":3420:3442   */\n  swap1\n  pop\n    /* \"#utility.yul\":3451:3484   */\n  tag_79\n    /* \"#utility.yul\":3478:3483   */\n  dup2\n    /* \"#utility.yul\":3451:3484   */\n  tag_34\n  jump\t// in\ntag_79:\n    /* \"#utility.yul\":3347:3490   */\n  swap3\n  swap2\n  pop\n  pop\n  jump\t// out\n    /* \"#utility.yul\":3496:4206   */\ntag_3:\n    /* \"#utility.yul\":3600:3606   */\n  0x00\n    /* \"#utility.yul\":3608:3614   */\n  0x00\n    /* \"#utility.yul\":3657:3659   */\n  0x40\n    /* \"#utility.yul\":3645:3654   */\n  dup4\n    /* \"#utility.yul\":3636:3643   */\n  dup6\n    /* \"#utility.yul\":3632:3655   */\n  sub\n    /* \"#utility.yul\":3628:3660   */\n  slt\n    /* \"#utility.yul\":3625:3744   */\n  iszero\n  tag_81\n  jumpi\n    /* \"#utility.yul\":3663:3742   */\n  tag_82\n  tag_19\n  jump\t// in\ntag_82:\n    /* \"#utility.yul\":3625:3744   */\ntag_81:\n    /* \"#utility.yul\":3804:3805   */\n  0x00\n    /* \"#utility.yul\":3793:3802   */\n  dup4\n    /* \"#utility.yul\":3789:3806   */\n  add\n    /* \"#utility.yul\":3783:3807   */\n  mload\n    /* \"#utility.yul\":3834:3852   */\n  0xffffffffffffffff\n    /* \"#utility.yul\":3826:3832   */\n  dup2\n    /* \"#utility.yul\":3823:3853   */\n  gt\n    /* \"#utility.yul\":3820:3937   */\n  iszero\n  tag_83\n  jumpi\n    /* \"#utility.yul\":3856:3935   */\n  tag_84\n  tag_20\n  jump\t// in\ntag_84:\n    /* \"#utility.yul\":3820:3937   */\ntag_83:\n    /* \"#utility.yul\":3961:4050   */\n  tag_85\n    /* \"#utility.yul\":4042:4049   */\n  dup6\n    /* \"#utility.yul\":4033:4039   */\n  dup3\n    /* \"#utility.yul\":4022:4031   */\n  dup7\n    /* \"#utility.yul\":4018:4040   */\n  add\n    /* \"#utility.yul\":3961:4050   */\n  tag_32\n  jump\t// in\ntag_85:\n    /* \"#utility.yul\":3951:4050   */\n  swap3\n  pop\n    /* \"#utility.yul\":3754:4060   */\n  pop\n    /* \"#utility.yul\":4099:4101   */\n  0x20\n    /* \"#utility.yul\":4125:4189   */\n  tag_86\n    /* \"#utility.yul\":4181:4188   */\n  dup6\n    /* \"#utility.yul\":4172:4178   */\n  dup3\n    /* \"#utility.yul\":4161:4170   */\n  dup7\n    /* \"#utility.yul\":4157:4179   */\n  add\n    /* \"#utility.yul\":4125:4189   */\n  tag_35\n  jump\t// in\ntag_86:\n    /* \"#utility.yul\":4115:4189   */\n  swap2\n  pop\n    /* \"#utility.yul\":4070:4199   */\n  pop\n    /* \"#utility.yul\":3496:4206   */\n  swap3\n  pop\n  swap3\n  swap1\n  pop\n  jump\t// out\n    /* \"#utility.yul\":4212:4392   */\ntag_36:\n    /* \"#utility.yul\":4260:4337   */\n  0x4e487b7100000000000000000000000000000000000000000000000000000000\n    /* \"#utility.yul\":4257:4258   */\n  0x00\n    /* \"#utility.yul\":4250:4338   */\n  mstore\n    /* \"#utility.yul\":4357:4361   */\n  0x11\n    /* \"#utility.yul\":4354:4355   */\n  0x04\n    /* \"#utility.yul\":4347:4362   */\n  mstore\n    /* \"#utility.yul\":4381:4385   */\n  0x24\n    /* \"#utility.yul\":4378:4379   */\n  0x00\n    /* \"#utility.yul\":4371:4386   */\n  revert\n    /* \"#utility.yul\":4398:4589   */\ntag_9:\n    /* \"#utility.yul\":4438:4441   */\n  0x00\n    /* \"#utility.yul\":4457:4477   */\n  tag_89\n    /* \"#utility.yul\":4475:4476   */\n  dup3\n    /* \"#utility.yul\":4457:4477   */\n  tag_33\n  jump\t// in\ntag_89:\n    /* \"#utility.yul\":4452:4477   */\n  swap2\n  pop\n    /* \"#utility.yul\":4491:4511   */\n  tag_90\n    /* \"#utility.yul\":4509:4510   */\n  dup4\n    /* \"#utility.yul\":4491:4511   */\n  tag_33\n  jump\t// in\ntag_90:\n    /* \"#utility.yul\":4486:4511   */\n  swap3\n  pop\n    /* \"#utility.yul\":4534:4535   */\n  dup3\n    /* \"#utility.yul\":4531:4532   */\n  dup3\n    /* \"#utility.yul\":4527:4536   */\n  add\n    /* \"#utility.yul\":4520:4536   */\n  swap1\n  pop\n    /* \"#utility.yul\":4555:4558   */\n  dup1\n    /* \"#utility.yul\":4552:4553   */\n  dup3\n    /* \"#utility.yul\":4549:4559   */\n  gt\n    /* \"#utility.yul\":4546:4582   */\n  iszero\n  tag_91\n  jumpi\n    /* \"#utility.yul\":4562:4580   */\n  tag_92\n  tag_36\n  jump\t// in\ntag_92:\n    /* \"#utility.yul\":4546:4582   */\ntag_91:\n    /* \"#utility.yul\":4398:4589   */\n  swap3\n  swap2\n  pop\n  pop\n  jump\t// out\n    /* \"voting.sol\":132:2697  contract Voting {... */\ntag_10:\n  dataSize(sub_0)\n  dup1\n  dataOffset(sub_0)\n  0x00\n  codecopy\n  0x00\n  return\nstop\n\nsub_0: assembly {\n        /* \"voting.sol\":132:2697  contract Voting {... */\n      mstore(0x40, 0x80)\n      callvalue\n      dup1\n      iszero\n      tag_1\n      jumpi\n      revert(0x00, 0x00)\n    tag_1:\n      pop\n      jumpi(tag_2, lt(calldatasize, 0x04))\n      shr(0xe0, calldataload(0x00))\n      dup1\n      0x392e6678\n      gt\n      tag_12\n      jumpi\n      dup1\n      0x392e6678\n      eq\n      tag_7\n      jumpi\n      dup1\n      0x7021939f\n      eq\n      tag_8\n      jumpi\n      dup1\n      0x8e7ea5b2\n      eq\n      tag_9\n      jumpi\n      dup1\n      0xb13c744b\n      eq\n      tag_10\n      jumpi\n      dup1\n      0xcc9ab267\n      eq\n      tag_11\n      jumpi\n      jump(tag_2)\n    tag_12:\n      dup1\n      0x036ee850\n      eq\n      tag_3\n      jumpi\n      dup1\n      0x09eef43e\n      eq\n      tag_4\n      jumpi\n      dup1\n      0x1300a6d1\n      eq\n      tag_5\n      jumpi\n      dup1\n      0x2f265cf7\n      eq\n      tag_6\n      jumpi\n    tag_2:\n      revert(0x00, 0x00)\n        /* \"voting.sol\":698:724  uint public votingDeadline */\n    tag_3:\n      tag_13\n      tag_14\n      jump\t// in\n    tag_13:\n      mload(0x40)\n      tag_15\n      swap2\n      swap1\n      tag_16\n      jump\t// in\n    tag_15:\n      mload(0x40)\n      dup1\n      swap2\n      sub\n      swap1\n      return\n        /* \"voting.sol\":638:679  mapping (address => bool) public hasVoted */\n    tag_4:\n      tag_17\n      0x04\n      dup1\n      calldatasize\n      sub\n      dup2\n      add\n      swap1\n      tag_18\n      swap2\n      swap1\n      tag_19\n      jump\t// in\n    tag_18:\n      tag_20\n      jump\t// in\n    tag_17:\n      mload(0x40)\n      tag_21\n      swap2\n      swap1\n      tag_22\n      jump\t// in\n    tag_21:\n      mload(0x40)\n      dup1\n      swap2\n      sub\n      swap1\n      return\n        /* \"voting.sol\":2545:2693  function timeLeft() public view returns (uint) {... */\n    tag_5:\n      tag_23\n      tag_24\n      jump\t// in\n    tag_23:\n      mload(0x40)\n      tag_25\n      swap2\n      swap1\n      tag_16\n      jump\t// in\n    tag_25:\n      mload(0x40)\n      dup1\n      swap2\n      sub\n      swap1\n      return\n        /* \"voting.sol\":1204:1377  function totalVotesFor(bytes32 candidate) public view returns (uint8) {... */\n    tag_6:\n      tag_26\n      0x04\n      dup1\n      calldatasize\n      sub\n      dup2\n      add\n      swap1\n      tag_27\n      swap2\n      swap1\n      tag_28\n      jump\t// in\n    tag_27:\n      tag_29\n      jump\t// in\n    tag_26:\n      mload(0x40)\n      tag_30\n      swap2\n      swap1\n      tag_31\n      jump\t// in\n    tag_30:\n      mload(0x40)\n      dup1\n      swap2\n      sub\n      swap1\n      return\n        /* \"voting.sol\":1849:2073  function validCandidate(bytes32 candidate) public view returns (bool) {... */\n    tag_7:\n      tag_32\n      0x04\n      dup1\n      calldatasize\n      sub\n      dup2\n      add\n      swap1\n      tag_33\n      swap2\n      swap1\n      tag_28\n      jump\t// in\n    tag_33:\n      tag_34\n      jump\t// in\n    tag_32:\n      mload(0x40)\n      tag_35\n      swap2\n      swap1\n      tag_22\n      jump\t// in\n    tag_35:\n      mload(0x40)\n      dup1\n      swap2\n      sub\n      swap1\n      return\n        /* \"voting.sol\":357:404  mapping (bytes32 => uint8) public votesReceived */\n    tag_8:\n      tag_36\n      0x04\n      dup1\n      calldatasize\n      sub\n      dup2\n      add\n      swap1\n      tag_37\n      swap2\n      swap1\n      tag_28\n      jump\t// in\n    tag_37:\n      tag_38\n      jump\t// in\n    tag_36:\n      mload(0x40)\n      tag_39\n      swap2\n      swap1\n      tag_31\n      jump\t// in\n    tag_39:\n      mload(0x40)\n      dup1\n      swap2\n      sub\n      swap1\n      return\n        /* \"voting.sol\":2092:2513  function getWinner() public view returns (bytes32) {... */\n    tag_9:\n      tag_40\n      tag_41\n      jump\t// in\n    tag_40:\n      mload(0x40)\n      tag_42\n      swap2\n      swap1\n      tag_43\n      jump\t// in\n    tag_42:\n      mload(0x40)\n      dup1\n      swap2\n      sub\n      swap1\n      return\n        /* \"voting.sol\":577:607  bytes32[] public candidateList */\n    tag_10:\n      tag_44\n      0x04\n      dup1\n      calldatasize\n      sub\n      dup2\n      add\n      swap1\n      tag_45\n      swap2\n      swap1\n      tag_46\n      jump\t// in\n    tag_45:\n      tag_47\n      jump\t// in\n    tag_44:\n      mload(0x40)\n      tag_48\n      swap2\n      swap1\n      tag_43\n      jump\t// in\n    tag_48:\n      mload(0x40)\n      dup1\n      swap2\n      sub\n      swap1\n      return\n        /* \"voting.sol\":1497:1845  function voteForCandidate(bytes32 candidate) public {... */\n    tag_11:\n      tag_49\n      0x04\n      dup1\n      calldatasize\n      sub\n      dup2\n      add\n      swap1\n      tag_50\n      swap2\n      swap1\n      tag_28\n      jump\t// in\n    tag_50:\n      tag_51\n      jump\t// in\n    tag_49:\n      stop\n        /* \"voting.sol\":698:724  uint public votingDeadline */\n    tag_14:\n      sload(0x03)\n      dup2\n      jump\t// out\n        /* \"voting.sol\":638:679  mapping (address => bool) public hasVoted */\n    tag_20:\n      mstore(0x20, 0x02)\n      dup1\n      0x00\n      mstore\n      keccak256(0x00, 0x40)\n      0x00\n      swap2\n      pop\n      sload\n      swap1\n      0x0100\n      exp\n      swap1\n      div\n      0xff\n      and\n      dup2\n      jump\t// out\n        /* \"voting.sol\":2545:2693  function timeLeft() public view returns (uint) {... */\n    tag_24:\n        /* \"voting.sol\":2586:2590  uint */\n      0x00\n        /* \"voting.sol\":2621:2635  votingDeadline */\n      sload(0x03)\n        /* \"voting.sol\":2602:2617  block.timestamp */\n      timestamp\n        /* \"voting.sol\":2602:2635  block.timestamp >= votingDeadline */\n      lt\n        /* \"voting.sol\":2598:2645  if (block.timestamp >= votingDeadline) return 0 */\n      tag_53\n      jumpi\n        /* \"voting.sol\":2644:2645  0 */\n      0x00\n        /* \"voting.sol\":2637:2645  return 0 */\n      swap1\n      pop\n      jump(tag_52)\n        /* \"voting.sol\":2598:2645  if (block.timestamp >= votingDeadline) return 0 */\n    tag_53:\n        /* \"voting.sol\":2675:2690  block.timestamp */\n      timestamp\n        /* \"voting.sol\":2658:2672  votingDeadline */\n      sload(0x03)\n        /* \"voting.sol\":2658:2690  votingDeadline - block.timestamp */\n      tag_54\n      swap2\n      swap1\n      tag_55\n      jump\t// in\n    tag_54:\n        /* \"voting.sol\":2651:2690  return votingDeadline - block.timestamp */\n      swap1\n      pop\n        /* \"voting.sol\":2545:2693  function timeLeft() public view returns (uint) {... */\n    tag_52:\n      swap1\n      jump\t// out\n        /* \"voting.sol\":1204:1377  function totalVotesFor(bytes32 candidate) public view returns (uint8) {... */\n    tag_29:\n        /* \"voting.sol\":1267:1272  uint8 */\n      0x00\n        /* \"voting.sol\":1288:1313  validCandidate(candidate) */\n      tag_57\n        /* \"voting.sol\":1303:1312  candidate */\n      dup3\n        /* \"voting.sol\":1288:1302  validCandidate */\n      tag_34\n        /* \"voting.sol\":1288:1313  validCandidate(candidate) */\n      jump\t// in\n    tag_57:\n        /* \"voting.sol\":1280:1335  require(validCandidate(candidate), \"Invalid candidate\") */\n      tag_58\n      jumpi\n      mload(0x40)\n      0x08c379a000000000000000000000000000000000000000000000000000000000\n      dup2\n      mstore\n      0x04\n      add\n      tag_59\n      swap1\n      tag_60\n      jump\t// in\n    tag_59:\n      mload(0x40)\n      dup1\n      swap2\n      sub\n      swap1\n      revert\n    tag_58:\n        /* \"voting.sol\":1348:1361  votesReceived */\n      0x00\n        /* \"voting.sol\":1348:1372  votesReceived[candidate] */\n      0x00\n        /* \"voting.sol\":1362:1371  candidate */\n      dup4\n        /* \"voting.sol\":1348:1372  votesReceived[candidate] */\n      dup2\n      mstore\n      0x20\n      add\n      swap1\n      dup2\n      mstore\n      0x20\n      add\n      0x00\n      keccak256\n      0x00\n      swap1\n      sload\n      swap1\n      0x0100\n      exp\n      swap1\n      div\n      0xff\n      and\n        /* \"voting.sol\":1341:1372  return votesReceived[candidate] */\n      swap1\n      pop\n        /* \"voting.sol\":1204:1377  function totalVotesFor(bytes32 candidate) public view returns (uint8) {... */\n      swap2\n      swap1\n      pop\n      jump\t// out\n        /* \"voting.sol\":1849:2073  function validCandidate(bytes32 candidate) public view returns (bool) {... */\n    tag_34:\n        /* \"voting.sol\":1913:1917  bool */\n      0x00\n        /* \"voting.sol\":1929:1935  uint i */\n      0x00\n        /* \"voting.sol\":1938:1939  0 */\n      0x00\n        /* \"voting.sol\":1929:1939  uint i = 0 */\n      swap1\n      pop\n        /* \"voting.sol\":1925:2051  for(uint i = 0; i < candidateList.length; i++) {... */\n    tag_62:\n        /* \"voting.sol\":1945:1958  candidateList */\n      0x01\n        /* \"voting.sol\":1945:1965  candidateList.length */\n      dup1\n      sload\n      swap1\n      pop\n        /* \"voting.sol\":1941:1942  i */\n      dup2\n        /* \"voting.sol\":1941:1965  i < candidateList.length */\n      lt\n        /* \"voting.sol\":1925:2051  for(uint i = 0; i < candidateList.length; i++) {... */\n      iszero\n      tag_63\n      jumpi\n        /* \"voting.sol\":2004:2013  candidate */\n      dup3\n        /* \"voting.sol\":1984:1997  candidateList */\n      0x01\n        /* \"voting.sol\":1998:1999  i */\n      dup3\n        /* \"voting.sol\":1984:2000  candidateList[i] */\n      dup2\n      sload\n      dup2\n      lt\n      tag_65\n      jumpi\n      tag_66\n      tag_67\n      jump\t// in\n    tag_66:\n    tag_65:\n      swap1\n      0x00\n      mstore\n      keccak256(0x00, 0x20)\n      add\n      sload\n        /* \"voting.sol\":1984:2013  candidateList[i] == candidate */\n      sub\n        /* \"voting.sol\":1980:2045  if (candidateList[i] == candidate) {... */\n      tag_69\n      jumpi\n        /* \"voting.sol\":2032:2036  true */\n      0x01\n        /* \"voting.sol\":2025:2036  return true */\n      swap2\n      pop\n      pop\n      jump(tag_61)\n        /* \"voting.sol\":1980:2045  if (candidateList[i] == candidate) {... */\n    tag_69:\n        /* \"voting.sol\":1967:1970  i++ */\n      dup1\n      dup1\n      0x01\n      add\n      swap2\n      pop\n      pop\n        /* \"voting.sol\":1925:2051  for(uint i = 0; i < candidateList.length; i++) {... */\n      jump(tag_62)\n    tag_63:\n      pop\n        /* \"voting.sol\":2063:2068  false */\n      0x00\n        /* \"voting.sol\":2056:2068  return false */\n      swap1\n      pop\n        /* \"voting.sol\":1849:2073  function validCandidate(bytes32 candidate) public view returns (bool) {... */\n    tag_61:\n      swap2\n      swap1\n      pop\n      jump\t// out\n        /* \"voting.sol\":357:404  mapping (bytes32 => uint8) public votesReceived */\n    tag_38:\n      mstore(0x20, 0x00)\n      dup1\n      0x00\n      mstore\n      keccak256(0x00, 0x40)\n      0x00\n      swap2\n      pop\n      sload\n      swap1\n      0x0100\n      exp\n      swap1\n      div\n      0xff\n      and\n      dup2\n      jump\t// out\n        /* \"voting.sol\":2092:2513  function getWinner() public view returns (bytes32) {... */\n    tag_41:\n        /* \"voting.sol\":2134:2141  bytes32 */\n      0x00\n        /* \"voting.sol\":2176:2190  votingDeadline */\n      sload(0x03)\n        /* \"voting.sol\":2157:2172  block.timestamp */\n      timestamp\n        /* \"voting.sol\":2157:2190  block.timestamp >= votingDeadline */\n      lt\n      iszero\n        /* \"voting.sol\":2149:2221  require(block.timestamp >= votingDeadline, \"Voting is still ongoing...\") */\n      tag_71\n      jumpi\n      mload(0x40)\n      0x08c379a000000000000000000000000000000000000000000000000000000000\n      dup2\n      mstore\n      0x04\n      add\n      tag_72\n      swap1\n      tag_73\n      jump\t// in\n    tag_72:\n      mload(0x40)\n      dup1\n      swap2\n      sub\n      swap1\n      revert\n    tag_71:\n        /* \"voting.sol\":2227:2241  bytes32 winner */\n      0x00\n        /* \"voting.sol\":2247:2265  uint8 highestVotes */\n      0x00\n        /* \"voting.sol\":2268:2269  0 */\n      0x00\n        /* \"voting.sol\":2247:2269  uint8 highestVotes = 0 */\n      swap1\n      pop\n        /* \"voting.sol\":2281:2287  uint i */\n      0x00\n        /* \"voting.sol\":2290:2291  0 */\n      0x00\n        /* \"voting.sol\":2281:2291  uint i = 0 */\n      swap1\n      pop\n        /* \"voting.sol\":2276:2490  for (uint i = 0; i < candidateList.length; i++) {... */\n    tag_74:\n        /* \"voting.sol\":2297:2310  candidateList */\n      0x01\n        /* \"voting.sol\":2297:2317  candidateList.length */\n      dup1\n      sload\n      swap1\n      pop\n        /* \"voting.sol\":2293:2294  i */\n      dup2\n        /* \"voting.sol\":2293:2317  i < candidateList.length */\n      lt\n        /* \"voting.sol\":2276:2490  for (uint i = 0; i < candidateList.length; i++) {... */\n      iszero\n      tag_75\n      jumpi\n        /* \"voting.sol\":2370:2382  highestVotes */\n      dup2\n        /* \"voting.sol\":2336:2382  votesReceived[candidateList[i]] > highestVotes */\n      0xff\n      and\n        /* \"voting.sol\":2336:2349  votesReceived */\n      0x00\n        /* \"voting.sol\":2336:2367  votesReceived[candidateList[i]] */\n      0x00\n        /* \"voting.sol\":2350:2363  candidateList */\n      0x01\n        /* \"voting.sol\":2364:2365  i */\n      dup5\n        /* \"voting.sol\":2350:2366  candidateList[i] */\n      dup2\n      sload\n      dup2\n      lt\n      tag_77\n      jumpi\n      tag_78\n      tag_67\n      jump\t// in\n    tag_78:\n    tag_77:\n      swap1\n      0x00\n      mstore\n      keccak256(0x00, 0x20)\n      add\n      sload\n        /* \"voting.sol\":2336:2367  votesReceived[candidateList[i]] */\n      dup2\n      mstore\n      0x20\n      add\n      swap1\n      dup2\n      mstore\n      0x20\n      add\n      0x00\n      keccak256\n      0x00\n      swap1\n      sload\n      swap1\n      0x0100\n      exp\n      swap1\n      div\n      0xff\n      and\n        /* \"voting.sol\":2336:2382  votesReceived[candidateList[i]] > highestVotes */\n      0xff\n      and\n      gt\n        /* \"voting.sol\":2332:2484  if (votesReceived[candidateList[i]] > highestVotes) {... */\n      iszero\n      tag_80\n      jumpi\n        /* \"voting.sol\":2409:2422  votesReceived */\n      0x00\n        /* \"voting.sol\":2409:2440  votesReceived[candidateList[i]] */\n      0x00\n        /* \"voting.sol\":2423:2436  candidateList */\n      0x01\n        /* \"voting.sol\":2437:2438  i */\n      dup4\n        /* \"voting.sol\":2423:2439  candidateList[i] */\n      dup2\n      sload\n      dup2\n      lt\n      tag_81\n      jumpi\n      tag_82\n      tag_67\n      jump\t// in\n    tag_82:\n    tag_81:\n      swap1\n      0x00\n      mstore\n      keccak256(0x00, 0x20)\n      add\n      sload\n        /* \"voting.sol\":2409:2440  votesReceived[candidateList[i]] */\n      dup2\n      mstore\n      0x20\n      add\n      swap1\n      dup2\n      mstore\n      0x20\n      add\n      0x00\n      keccak256\n      0x00\n      swap1\n      sload\n      swap1\n      0x0100\n      exp\n      swap1\n      div\n      0xff\n      and\n        /* \"voting.sol\":2394:2440  highestVotes = votesReceived[candidateList[i]] */\n      swap2\n      pop\n        /* \"voting.sol\":2459:2472  candidateList */\n      0x01\n        /* \"voting.sol\":2473:2474  i */\n      dup2\n        /* \"voting.sol\":2459:2475  candidateList[i] */\n      dup2\n      sload\n      dup2\n      lt\n      tag_84\n      jumpi\n      tag_85\n      tag_67\n      jump\t// in\n    tag_85:\n    tag_84:\n      swap1\n      0x00\n      mstore\n      keccak256(0x00, 0x20)\n      add\n      sload\n        /* \"voting.sol\":2450:2475  winner = candidateList[i] */\n      swap3\n      pop\n        /* \"voting.sol\":2332:2484  if (votesReceived[candidateList[i]] > highestVotes) {... */\n    tag_80:\n        /* \"voting.sol\":2319:2322  i++ */\n      dup1\n      dup1\n      0x01\n      add\n      swap2\n      pop\n      pop\n        /* \"voting.sol\":2276:2490  for (uint i = 0; i < candidateList.length; i++) {... */\n      jump(tag_74)\n    tag_75:\n      pop\n        /* \"voting.sol\":2502:2508  winner */\n      dup2\n        /* \"voting.sol\":2495:2508  return winner */\n      swap3\n      pop\n      pop\n      pop\n        /* \"voting.sol\":2092:2513  function getWinner() public view returns (bytes32) {... */\n      swap1\n      jump\t// out\n        /* \"voting.sol\":577:607  bytes32[] public candidateList */\n    tag_47:\n      0x01\n      dup2\n      dup2\n      sload\n      dup2\n      lt\n      tag_87\n      jumpi\n      0x00\n      dup1\n      revert\n    tag_87:\n      swap1\n      0x00\n      mstore\n      keccak256(0x00, 0x20)\n      add\n      0x00\n      swap2\n      pop\n      swap1\n      pop\n      sload\n      dup2\n      jump\t// out\n        /* \"voting.sol\":1497:1845  function voteForCandidate(bytes32 candidate) public {... */\n    tag_51:\n        /* \"voting.sol\":1615:1629  votingDeadline */\n      sload(0x03)\n        /* \"voting.sol\":1597:1612  block.timestamp */\n      timestamp\n        /* \"voting.sol\":1597:1629  block.timestamp < votingDeadline */\n      lt\n        /* \"voting.sol\":1589:1630  require(block.timestamp < votingDeadline) */\n      tag_90\n      jumpi\n      revert(0x00, 0x00)\n    tag_90:\n        /* \"voting.sol\":1645:1653  hasVoted */\n      0x02\n        /* \"voting.sol\":1645:1665  hasVoted[msg.sender] */\n      0x00\n        /* \"voting.sol\":1654:1664  msg.sender */\n      caller\n        /* \"voting.sol\":1645:1665  hasVoted[msg.sender] */\n      0xffffffffffffffffffffffffffffffffffffffff\n      and\n      0xffffffffffffffffffffffffffffffffffffffff\n      and\n      dup2\n      mstore\n      0x20\n      add\n      swap1\n      dup2\n      mstore\n      0x20\n      add\n      0x00\n      keccak256\n      0x00\n      swap1\n      sload\n      swap1\n      0x0100\n      exp\n      swap1\n      div\n      0xff\n      and\n        /* \"voting.sol\":1644:1665  !hasVoted[msg.sender] */\n      iszero\n        /* \"voting.sol\":1636:1693  require(!hasVoted[msg.sender], \"You have already voted.\") */\n      tag_91\n      jumpi\n      mload(0x40)\n      0x08c379a000000000000000000000000000000000000000000000000000000000\n      dup2\n      mstore\n      0x04\n      add\n      tag_92\n      swap1\n      tag_93\n      jump\t// in\n    tag_92:\n      mload(0x40)\n      dup1\n      swap2\n      sub\n      swap1\n      revert\n    tag_91:\n        /* \"voting.sol\":1707:1732  validCandidate(candidate) */\n      tag_94\n        /* \"voting.sol\":1722:1731  candidate */\n      dup2\n        /* \"voting.sol\":1707:1721  validCandidate */\n      tag_34\n        /* \"voting.sol\":1707:1732  validCandidate(candidate) */\n      jump\t// in\n    tag_94:\n        /* \"voting.sol\":1699:1755  require(validCandidate(candidate), \"Invalid candidate.\") */\n      tag_95\n      jumpi\n      mload(0x40)\n      0x08c379a000000000000000000000000000000000000000000000000000000000\n      dup2\n      mstore\n      0x04\n      add\n      tag_96\n      swap1\n      tag_97\n      jump\t// in\n    tag_96:\n      mload(0x40)\n      dup1\n      swap2\n      sub\n      swap1\n      revert\n    tag_95:\n        /* \"voting.sol\":1790:1791  1 */\n      0x01\n        /* \"voting.sol\":1762:1775  votesReceived */\n      0x00\n        /* \"voting.sol\":1762:1786  votesReceived[candidate] */\n      0x00\n        /* \"voting.sol\":1776:1785  candidate */\n      dup4\n        /* \"voting.sol\":1762:1786  votesReceived[candidate] */\n      dup2\n      mstore\n      0x20\n      add\n      swap1\n      dup2\n      mstore\n      0x20\n      add\n      0x00\n      keccak256\n      0x00\n        /* \"voting.sol\":1762:1791  votesReceived[candidate] += 1 */\n      dup3\n      dup3\n      dup3\n      swap1\n      sload\n      swap1\n      0x0100\n      exp\n      swap1\n      div\n      0xff\n      and\n      tag_98\n      swap2\n      swap1\n      tag_99\n      jump\t// in\n    tag_98:\n      swap3\n      pop\n      0x0100\n      exp\n      dup2\n      sload\n      dup2\n      0xff\n      mul\n      not\n      and\n      swap1\n      dup4\n      0xff\n      and\n      mul\n      or\n      swap1\n      sstore\n      pop\n        /* \"voting.sol\":1836:1840  true */\n      0x01\n        /* \"voting.sol\":1813:1821  hasVoted */\n      0x02\n        /* \"voting.sol\":1813:1833  hasVoted[msg.sender] */\n      0x00\n        /* \"voting.sol\":1822:1832  msg.sender */\n      caller\n        /* \"voting.sol\":1813:1833  hasVoted[msg.sender] */\n      0xffffffffffffffffffffffffffffffffffffffff\n      and\n      0xffffffffffffffffffffffffffffffffffffffff\n      and\n      dup2\n      mstore\n      0x20\n      add\n      swap1\n      dup2\n      mstore\n      0x20\n      add\n      0x00\n      keccak256\n      0x00\n        /* \"voting.sol\":1813:1840  hasVoted[msg.sender] = true */\n      0x0100\n      exp\n      dup2\n      sload\n      dup2\n      0xff\n      mul\n      not\n      and\n      swap1\n      dup4\n      iszero\n      iszero\n      mul\n      or\n      swap1\n      sstore\n      pop\n        /* \"voting.sol\":1497:1845  function voteForCandidate(bytes32 candidate) public {... */\n      pop\n      jump\t// out\n        /* \"#utility.yul\":7:84   */\n    tag_100:\n        /* \"#utility.yul\":44:51   */\n      0x00\n        /* \"#utility.yul\":73:78   */\n      dup2\n        /* \"#utility.yul\":62:78   */\n      swap1\n      pop\n        /* \"#utility.yul\":7:84   */\n      swap2\n      swap1\n      pop\n      jump\t// out\n        /* \"#utility.yul\":90:208   */\n    tag_101:\n        /* \"#utility.yul\":177:201   */\n      tag_132\n        /* \"#utility.yul\":195:200   */\n      dup2\n        /* \"#utility.yul\":177:201   */\n      tag_100\n      jump\t// in\n    tag_132:\n        /* \"#utility.yul\":172:175   */\n      dup3\n        /* \"#utility.yul\":165:202   */\n      mstore\n        /* \"#utility.yul\":90:208   */\n      pop\n      pop\n      jump\t// out\n        /* \"#utility.yul\":214:436   */\n    tag_16:\n        /* \"#utility.yul\":307:311   */\n      0x00\n        /* \"#utility.yul\":345:347   */\n      0x20\n        /* \"#utility.yul\":334:343   */\n      dup3\n        /* \"#utility.yul\":330:348   */\n      add\n        /* \"#utility.yul\":322:348   */\n      swap1\n      pop\n        /* \"#utility.yul\":358:429   */\n      tag_134\n        /* \"#utility.yul\":426:427   */\n      0x00\n        /* \"#utility.yul\":415:424   */\n      dup4\n        /* \"#utility.yul\":411:428   */\n      add\n        /* \"#utility.yul\":402:408   */\n      dup5\n        /* \"#utility.yul\":358:429   */\n      tag_101\n      jump\t// in\n    tag_134:\n        /* \"#utility.yul\":214:436   */\n      swap3\n      swap2\n      pop\n      pop\n      jump\t// out\n        /* \"#utility.yul\":523:640   */\n    tag_103:\n        /* \"#utility.yul\":632:633   */\n      0x00\n        /* \"#utility.yul\":629:630   */\n      0x00\n        /* \"#utility.yul\":622:634   */\n      revert\n        /* \"#utility.yul\":769:895   */\n    tag_105:\n        /* \"#utility.yul\":806:813   */\n      0x00\n        /* \"#utility.yul\":846:888   */\n      0xffffffffffffffffffffffffffffffffffffffff\n        /* \"#utility.yul\":839:844   */\n      dup3\n        /* \"#utility.yul\":835:889   */\n      and\n        /* \"#utility.yul\":824:889   */\n      swap1\n      pop\n        /* \"#utility.yul\":769:895   */\n      swap2\n      swap1\n      pop\n      jump\t// out\n        /* \"#utility.yul\":901:997   */\n    tag_106:\n        /* \"#utility.yul\":938:945   */\n      0x00\n        /* \"#utility.yul\":967:991   */\n      tag_140\n        /* \"#utility.yul\":985:990   */\n      dup3\n        /* \"#utility.yul\":967:991   */\n      tag_105\n      jump\t// in\n    tag_140:\n        /* \"#utility.yul\":956:991   */\n      swap1\n      pop\n        /* \"#utility.yul\":901:997   */\n      swap2\n      swap1\n      pop\n      jump\t// out\n        /* \"#utility.yul\":1003:1125   */\n    tag_107:\n        /* \"#utility.yul\":1076:1100   */\n      tag_142\n        /* \"#utility.yul\":1094:1099   */\n      dup2\n        /* \"#utility.yul\":1076:1100   */\n      tag_106\n      jump\t// in\n    tag_142:\n        /* \"#utility.yul\":1069:1074   */\n      dup2\n        /* \"#utility.yul\":1066:1101   */\n      eq\n        /* \"#utility.yul\":1056:1119   */\n      tag_143\n      jumpi\n        /* \"#utility.yul\":1115:1116   */\n      0x00\n        /* \"#utility.yul\":1112:1113   */\n      0x00\n        /* \"#utility.yul\":1105:1117   */\n      revert\n        /* \"#utility.yul\":1056:1119   */\n    tag_143:\n        /* \"#utility.yul\":1003:1125   */\n      pop\n      jump\t// out\n        /* \"#utility.yul\":1131:1270   */\n    tag_108:\n        /* \"#utility.yul\":1177:1182   */\n      0x00\n        /* \"#utility.yul\":1215:1221   */\n      dup2\n        /* \"#utility.yul\":1202:1222   */\n      calldataload\n        /* \"#utility.yul\":1193:1222   */\n      swap1\n      pop\n        /* \"#utility.yul\":1231:1264   */\n      tag_145\n        /* \"#utility.yul\":1258:1263   */\n      dup2\n        /* \"#utility.yul\":1231:1264   */\n      tag_107\n      jump\t// in\n    tag_145:\n        /* \"#utility.yul\":1131:1270   */\n      swap3\n      swap2\n      pop\n      pop\n      jump\t// out\n        /* \"#utility.yul\":1276:1605   */\n    tag_19:\n        /* \"#utility.yul\":1335:1341   */\n      0x00\n        /* \"#utility.yul\":1384:1386   */\n      0x20\n        /* \"#utility.yul\":1372:1381   */\n      dup3\n        /* \"#utility.yul\":1363:1370   */\n      dup5\n        /* \"#utility.yul\":1359:1382   */\n      sub\n        /* \"#utility.yul\":1355:1387   */\n      slt\n        /* \"#utility.yul\":1352:1471   */\n      iszero\n      tag_147\n      jumpi\n        /* \"#utility.yul\":1390:1469   */\n      tag_148\n      tag_103\n      jump\t// in\n    tag_148:\n        /* \"#utility.yul\":1352:1471   */\n    tag_147:\n        /* \"#utility.yul\":1510:1511   */\n      0x00\n        /* \"#utility.yul\":1535:1588   */\n      tag_149\n        /* \"#utility.yul\":1580:1587   */\n      dup5\n        /* \"#utility.yul\":1571:1577   */\n      dup3\n        /* \"#utility.yul\":1560:1569   */\n      dup6\n        /* \"#utility.yul\":1556:1578   */\n      add\n        /* \"#utility.yul\":1535:1588   */\n      tag_108\n      jump\t// in\n    tag_149:\n        /* \"#utility.yul\":1525:1588   */\n      swap2\n      pop\n        /* \"#utility.yul\":1481:1598   */\n      pop\n        /* \"#utility.yul\":1276:1605   */\n      swap3\n      swap2\n      pop\n      pop\n      jump\t// out\n        /* \"#utility.yul\":1611:1701   */\n    tag_109:\n        /* \"#utility.yul\":1645:1652   */\n      0x00\n        /* \"#utility.yul\":1688:1693   */\n      dup2\n        /* \"#utility.yul\":1681:1694   */\n      iszero\n        /* \"#utility.yul\":1674:1695   */\n      iszero\n        /* \"#utility.yul\":1663:1695   */\n      swap1\n      pop\n        /* \"#utility.yul\":1611:1701   */\n      swap2\n      swap1\n      pop\n      jump\t// out\n        /* \"#utility.yul\":1707:1816   */\n    tag_110:\n        /* \"#utility.yul\":1788:1809   */\n      tag_152\n        /* \"#utility.yul\":1803:1808   */\n      dup2\n        /* \"#utility.yul\":1788:1809   */\n      tag_109\n      jump\t// in\n    tag_152:\n        /* \"#utility.yul\":1783:1786   */\n      dup3\n        /* \"#utility.yul\":1776:1810   */\n      mstore\n        /* \"#utility.yul\":1707:1816   */\n      pop\n      pop\n      jump\t// out\n        /* \"#utility.yul\":1822:2032   */\n    tag_22:\n        /* \"#utility.yul\":1909:1913   */\n      0x00\n        /* \"#utility.yul\":1947:1949   */\n      0x20\n        /* \"#utility.yul\":1936:1945   */\n      dup3\n        /* \"#utility.yul\":1932:1950   */\n      add\n        /* \"#utility.yul\":1924:1950   */\n      swap1\n      pop\n        /* \"#utility.yul\":1960:2025   */\n      tag_154\n        /* \"#utility.yul\":2022:2023   */\n      0x00\n        /* \"#utility.yul\":2011:2020   */\n      dup4\n        /* \"#utility.yul\":2007:2024   */\n      add\n        /* \"#utility.yul\":1998:2004   */\n      dup5\n        /* \"#utility.yul\":1960:2025   */\n      tag_110\n      jump\t// in\n    tag_154:\n        /* \"#utility.yul\":1822:2032   */\n      swap3\n      swap2\n      pop\n      pop\n      jump\t// out\n        /* \"#utility.yul\":2038:2115   */\n    tag_111:\n        /* \"#utility.yul\":2075:2082   */\n      0x00\n        /* \"#utility.yul\":2104:2109   */\n      dup2\n        /* \"#utility.yul\":2093:2109   */\n      swap1\n      pop\n        /* \"#utility.yul\":2038:2115   */\n      swap2\n      swap1\n      pop\n      jump\t// out\n        /* \"#utility.yul\":2121:2243   */\n    tag_112:\n        /* \"#utility.yul\":2194:2218   */\n      tag_157\n        /* \"#utility.yul\":2212:2217   */\n      dup2\n        /* \"#utility.yul\":2194:2218   */\n      tag_111\n      jump\t// in\n    tag_157:\n        /* \"#utility.yul\":2187:2192   */\n      dup2\n        /* \"#utility.yul\":2184:2219   */\n      eq\n        /* \"#utility.yul\":2174:2237   */\n      tag_158\n      jumpi\n        /* \"#utility.yul\":2233:2234   */\n      0x00\n        /* \"#utility.yul\":2230:2231   */\n      0x00\n        /* \"#utility.yul\":2223:2235   */\n      revert\n        /* \"#utility.yul\":2174:2237   */\n    tag_158:\n        /* \"#utility.yul\":2121:2243   */\n      pop\n      jump\t// out\n        /* \"#utility.yul\":2249:2388   */\n    tag_113:\n        /* \"#utility.yul\":2295:2300   */\n      0x00\n        /* \"#utility.yul\":2333:2339   */\n      dup2\n        /* \"#utility.yul\":2320:2340   */\n      calldataload\n        /* \"#utility.yul\":2311:2340   */\n      swap1\n      pop\n        /* \"#utility.yul\":2349:2382   */\n      tag_160\n        /* \"#utility.yul\":2376:2381   */\n      dup2\n        /* \"#utility.yul\":2349:2382   */\n      tag_112\n      jump\t// in\n    tag_160:\n        /* \"#utility.yul\":2249:2388   */\n      swap3\n      swap2\n      pop\n      pop\n      jump\t// out\n        /* \"#utility.yul\":2394:2723   */\n    tag_28:\n        /* \"#utility.yul\":2453:2459   */\n      0x00\n        /* \"#utility.yul\":2502:2504   */\n      0x20\n        /* \"#utility.yul\":2490:2499   */\n      dup3\n        /* \"#utility.yul\":2481:2488   */\n      dup5\n        /* \"#utility.yul\":2477:2500   */\n      sub\n        /* \"#utility.yul\":2473:2505   */\n      slt\n        /* \"#utility.yul\":2470:2589   */\n      iszero\n      tag_162\n      jumpi\n        /* \"#utility.yul\":2508:2587   */\n      tag_163\n      tag_103\n      jump\t// in\n    tag_163:\n        /* \"#utility.yul\":2470:2589   */\n    tag_162:\n        /* \"#utility.yul\":2628:2629   */\n      0x00\n        /* \"#utility.yul\":2653:2706   */\n      tag_164\n        /* \"#utility.yul\":2698:2705   */\n      dup5\n        /* \"#utility.yul\":2689:2695   */\n      dup3\n        /* \"#utility.yul\":2678:2687   */\n      dup6\n        /* \"#utility.yul\":2674:2696   */\n      add\n        /* \"#utility.yul\":2653:2706   */\n      tag_113\n      jump\t// in\n    tag_164:\n        /* \"#utility.yul\":2643:2706   */\n      swap2\n      pop\n        /* \"#utility.yul\":2599:2716   */\n      pop\n        /* \"#utility.yul\":2394:2723   */\n      swap3\n      swap2\n      pop\n      pop\n      jump\t// out\n        /* \"#utility.yul\":2729:2815   */\n    tag_114:\n        /* \"#utility.yul\":2764:2771   */\n      0x00\n        /* \"#utility.yul\":2804:2808   */\n      0xff\n        /* \"#utility.yul\":2797:2802   */\n      dup3\n        /* \"#utility.yul\":2793:2809   */\n      and\n        /* \"#utility.yul\":2782:2809   */\n      swap1\n      pop\n        /* \"#utility.yul\":2729:2815   */\n      swap2\n      swap1\n      pop\n      jump\t// out\n        /* \"#utility.yul\":2821:2933   */\n    tag_115:\n        /* \"#utility.yul\":2904:2926   */\n      tag_167\n        /* \"#utility.yul\":2920:2925   */\n      dup2\n        /* \"#utility.yul\":2904:2926   */\n      tag_114\n      jump\t// in\n    tag_167:\n        /* \"#utility.yul\":2899:2902   */\n      dup3\n        /* \"#utility.yul\":2892:2927   */\n      mstore\n        /* \"#utility.yul\":2821:2933   */\n      pop\n      pop\n      jump\t// out\n        /* \"#utility.yul\":2939:3153   */\n    tag_31:\n        /* \"#utility.yul\":3028:3032   */\n      0x00\n        /* \"#utility.yul\":3066:3068   */\n      0x20\n        /* \"#utility.yul\":3055:3064   */\n      dup3\n        /* \"#utility.yul\":3051:3069   */\n      add\n        /* \"#utility.yul\":3043:3069   */\n      swap1\n      pop\n        /* \"#utility.yul\":3079:3146   */\n      tag_169\n        /* \"#utility.yul\":3143:3144   */\n      0x00\n        /* \"#utility.yul\":3132:3141   */\n      dup4\n        /* \"#utility.yul\":3128:3145   */\n      add\n        /* \"#utility.yul\":3119:3125   */\n      dup5\n        /* \"#utility.yul\":3079:3146   */\n      tag_115\n      jump\t// in\n    tag_169:\n        /* \"#utility.yul\":2939:3153   */\n      swap3\n      swap2\n      pop\n      pop\n      jump\t// out\n        /* \"#utility.yul\":3159:3277   */\n    tag_116:\n        /* \"#utility.yul\":3246:3270   */\n      tag_171\n        /* \"#utility.yul\":3264:3269   */\n      dup2\n        /* \"#utility.yul\":3246:3270   */\n      tag_111\n      jump\t// in\n    tag_171:\n        /* \"#utility.yul\":3241:3244   */\n      dup3\n        /* \"#utility.yul\":3234:3271   */\n      mstore\n        /* \"#utility.yul\":3159:3277   */\n      pop\n      pop\n      jump\t// out\n        /* \"#utility.yul\":3283:3505   */\n    tag_43:\n        /* \"#utility.yul\":3376:3380   */\n      0x00\n        /* \"#utility.yul\":3414:3416   */\n      0x20\n        /* \"#utility.yul\":3403:3412   */\n      dup3\n        /* \"#utility.yul\":3399:3417   */\n      add\n        /* \"#utility.yul\":3391:3417   */\n      swap1\n      pop\n        /* \"#utility.yul\":3427:3498   */\n      tag_173\n        /* \"#utility.yul\":3495:3496   */\n      0x00\n        /* \"#utility.yul\":3484:3493   */\n      dup4\n        /* \"#utility.yul\":3480:3497   */\n      add\n        /* \"#utility.yul\":3471:3477   */\n      dup5\n        /* \"#utility.yul\":3427:3498   */\n      tag_116\n      jump\t// in\n    tag_173:\n        /* \"#utility.yul\":3283:3505   */\n      swap3\n      swap2\n      pop\n      pop\n      jump\t// out\n        /* \"#utility.yul\":3511:3633   */\n    tag_117:\n        /* \"#utility.yul\":3584:3608   */\n      tag_175\n        /* \"#utility.yul\":3602:3607   */\n      dup2\n        /* \"#utility.yul\":3584:3608   */\n      tag_100\n      jump\t// in\n    tag_175:\n        /* \"#utility.yul\":3577:3582   */\n      dup2\n        /* \"#utility.yul\":3574:3609   */\n      eq\n        /* \"#utility.yul\":3564:3627   */\n      tag_176\n      jumpi\n        /* \"#utility.yul\":3623:3624   */\n      0x00\n        /* \"#utility.yul\":3620:3621   */\n      0x00\n        /* \"#utility.yul\":3613:3625   */\n      revert\n        /* \"#utility.yul\":3564:3627   */\n    tag_176:\n        /* \"#utility.yul\":3511:3633   */\n      pop\n      jump\t// out\n        /* \"#utility.yul\":3639:3778   */\n    tag_118:\n        /* \"#utility.yul\":3685:3690   */\n      0x00\n        /* \"#utility.yul\":3723:3729   */\n      dup2\n        /* \"#utility.yul\":3710:3730   */\n      calldataload\n        /* \"#utility.yul\":3701:3730   */\n      swap1\n      pop\n        /* \"#utility.yul\":3739:3772   */\n      tag_178\n        /* \"#utility.yul\":3766:3771   */\n      dup2\n        /* \"#utility.yul\":3739:3772   */\n      tag_117\n      jump\t// in\n    tag_178:\n        /* \"#utility.yul\":3639:3778   */\n      swap3\n      swap2\n      pop\n      pop\n      jump\t// out\n        /* \"#utility.yul\":3784:4113   */\n    tag_46:\n        /* \"#utility.yul\":3843:3849   */\n      0x00\n        /* \"#utility.yul\":3892:3894   */\n      0x20\n        /* \"#utility.yul\":3880:3889   */\n      dup3\n        /* \"#utility.yul\":3871:3878   */\n      dup5\n        /* \"#utility.yul\":3867:3890   */\n      sub\n        /* \"#utility.yul\":3863:3895   */\n      slt\n        /* \"#utility.yul\":3860:3979   */\n      iszero\n      tag_180\n      jumpi\n        /* \"#utility.yul\":3898:3977   */\n      tag_181\n      tag_103\n      jump\t// in\n    tag_181:\n        /* \"#utility.yul\":3860:3979   */\n    tag_180:\n        /* \"#utility.yul\":4018:4019   */\n      0x00\n        /* \"#utility.yul\":4043:4096   */\n      tag_182\n        /* \"#utility.yul\":4088:4095   */\n      dup5\n        /* \"#utility.yul\":4079:4085   */\n      dup3\n        /* \"#utility.yul\":4068:4077   */\n      dup6\n        /* \"#utility.yul\":4064:4086   */\n      add\n        /* \"#utility.yul\":4043:4096   */\n      tag_118\n      jump\t// in\n    tag_182:\n        /* \"#utility.yul\":4033:4096   */\n      swap2\n      pop\n        /* \"#utility.yul\":3989:4106   */\n      pop\n        /* \"#utility.yul\":3784:4113   */\n      swap3\n      swap2\n      pop\n      pop\n      jump\t// out\n        /* \"#utility.yul\":4119:4299   */\n    tag_119:\n        /* \"#utility.yul\":4167:4244   */\n      0x4e487b7100000000000000000000000000000000000000000000000000000000\n        /* \"#utility.yul\":4164:4165   */\n      0x00\n        /* \"#utility.yul\":4157:4245   */\n      mstore\n        /* \"#utility.yul\":4264:4268   */\n      0x11\n        /* \"#utility.yul\":4261:4262   */\n      0x04\n        /* \"#utility.yul\":4254:4269   */\n      mstore\n        /* \"#utility.yul\":4288:4292   */\n      0x24\n        /* \"#utility.yul\":4285:4286   */\n      0x00\n        /* \"#utility.yul\":4278:4293   */\n      revert\n        /* \"#utility.yul\":4305:4499   */\n    tag_55:\n        /* \"#utility.yul\":4345:4349   */\n      0x00\n        /* \"#utility.yul\":4365:4385   */\n      tag_185\n        /* \"#utility.yul\":4383:4384   */\n      dup3\n        /* \"#utility.yul\":4365:4385   */\n      tag_100\n      jump\t// in\n    tag_185:\n        /* \"#utility.yul\":4360:4385   */\n      swap2\n      pop\n        /* \"#utility.yul\":4399:4419   */\n      tag_186\n        /* \"#utility.yul\":4417:4418   */\n      dup4\n        /* \"#utility.yul\":4399:4419   */\n      tag_100\n      jump\t// in\n    tag_186:\n        /* \"#utility.yul\":4394:4419   */\n      swap3\n      pop\n        /* \"#utility.yul\":4443:4444   */\n      dup3\n        /* \"#utility.yul\":4440:4441   */\n      dup3\n        /* \"#utility.yul\":4436:4445   */\n      sub\n        /* \"#utility.yul\":4428:4445   */\n      swap1\n      pop\n        /* \"#utility.yul\":4467:4468   */\n      dup2\n        /* \"#utility.yul\":4461:4465   */\n      dup2\n        /* \"#utility.yul\":4458:4469   */\n      gt\n        /* \"#utility.yul\":4455:4492   */\n      iszero\n      tag_187\n      jumpi\n        /* \"#utility.yul\":4472:4490   */\n      tag_188\n      tag_119\n      jump\t// in\n    tag_188:\n        /* \"#utility.yul\":4455:4492   */\n    tag_187:\n        /* \"#utility.yul\":4305:4499   */\n      swap3\n      swap2\n      pop\n      pop\n      jump\t// out\n        /* \"#utility.yul\":4505:4674   */\n    tag_120:\n        /* \"#utility.yul\":4589:4600   */\n      0x00\n        /* \"#utility.yul\":4623:4629   */\n      dup3\n        /* \"#utility.yul\":4618:4621   */\n      dup3\n        /* \"#utility.yul\":4611:4630   */\n      mstore\n        /* \"#utility.yul\":4663:4667   */\n      0x20\n        /* \"#utility.yul\":4658:4661   */\n      dup3\n        /* \"#utility.yul\":4654:4668   */\n      add\n        /* \"#utility.yul\":4639:4668   */\n      swap1\n      pop\n        /* \"#utility.yul\":4505:4674   */\n      swap3\n      swap2\n      pop\n      pop\n      jump\t// out\n        /* \"#utility.yul\":4680:4847   */\n    tag_121:\n        /* \"#utility.yul\":4820:4839   */\n      0x496e76616c69642063616e646964617465000000000000000000000000000000\n        /* \"#utility.yul\":4816:4817   */\n      0x00\n        /* \"#utility.yul\":4808:4814   */\n      dup3\n        /* \"#utility.yul\":4804:4818   */\n      add\n        /* \"#utility.yul\":4797:4840   */\n      mstore\n        /* \"#utility.yul\":4680:4847   */\n      pop\n      jump\t// out\n        /* \"#utility.yul\":4853:5219   */\n    tag_122:\n        /* \"#utility.yul\":4995:4998   */\n      0x00\n        /* \"#utility.yul\":5016:5083   */\n      tag_192\n        /* \"#utility.yul\":5080:5082   */\n      0x11\n        /* \"#utility.yul\":5075:5078   */\n      dup4\n        /* \"#utility.yul\":5016:5083   */\n      tag_120\n      jump\t// in\n    tag_192:\n        /* \"#utility.yul\":5009:5083   */\n      swap2\n      pop\n        /* \"#utility.yul\":5092:5185   */\n      tag_193\n        /* \"#utility.yul\":5181:5184   */\n      dup3\n        /* \"#utility.yul\":5092:5185   */\n      tag_121\n      jump\t// in\n    tag_193:\n        /* \"#utility.yul\":5210:5212   */\n      0x20\n        /* \"#utility.yul\":5205:5208   */\n      dup3\n        /* \"#utility.yul\":5201:5213   */\n      add\n        /* \"#utility.yul\":5194:5213   */\n      swap1\n      pop\n        /* \"#utility.yul\":4853:5219   */\n      swap2\n      swap1\n      pop\n      jump\t// out\n        /* \"#utility.yul\":5225:5644   */\n    tag_60:\n        /* \"#utility.yul\":5391:5395   */\n      0x00\n        /* \"#utility.yul\":5429:5431   */\n      0x20\n        /* \"#utility.yul\":5418:5427   */\n      dup3\n        /* \"#utility.yul\":5414:5432   */\n      add\n        /* \"#utility.yul\":5406:5432   */\n      swap1\n      pop\n        /* \"#utility.yul\":5478:5487   */\n      dup2\n        /* \"#utility.yul\":5472:5476   */\n      dup2\n        /* \"#utility.yul\":5468:5488   */\n      sub\n        /* \"#utility.yul\":5464:5465   */\n      0x00\n        /* \"#utility.yul\":5453:5462   */\n      dup4\n        /* \"#utility.yul\":5449:5466   */\n      add\n        /* \"#utility.yul\":5442:5489   */\n      mstore\n        /* \"#utility.yul\":5506:5637   */\n      tag_195\n        /* \"#utility.yul\":5632:5636   */\n      dup2\n        /* \"#utility.yul\":5506:5637   */\n      tag_122\n      jump\t// in\n    tag_195:\n        /* \"#utility.yul\":5498:5637   */\n      swap1\n      pop\n        /* \"#utility.yul\":5225:5644   */\n      swap2\n      swap1\n      pop\n      jump\t// out\n        /* \"#utility.yul\":5650:5830   */\n    tag_67:\n        /* \"#utility.yul\":5698:5775   */\n      0x4e487b7100000000000000000000000000000000000000000000000000000000\n        /* \"#utility.yul\":5695:5696   */\n      0x00\n        /* \"#utility.yul\":5688:5776   */\n      mstore\n        /* \"#utility.yul\":5795:5799   */\n      0x32\n        /* \"#utility.yul\":5792:5793   */\n      0x04\n        /* \"#utility.yul\":5785:5800   */\n      mstore\n        /* \"#utility.yul\":5819:5823   */\n      0x24\n        /* \"#utility.yul\":5816:5817   */\n      0x00\n        /* \"#utility.yul\":5809:5824   */\n      revert\n        /* \"#utility.yul\":5836:6012   */\n    tag_123:\n        /* \"#utility.yul\":5976:6004   */\n      0x566f74696e67206973207374696c6c206f6e676f696e672e2e2e000000000000\n        /* \"#utility.yul\":5972:5973   */\n      0x00\n        /* \"#utility.yul\":5964:5970   */\n      dup3\n        /* \"#utility.yul\":5960:5974   */\n      add\n        /* \"#utility.yul\":5953:6005   */\n      mstore\n        /* \"#utility.yul\":5836:6012   */\n      pop\n      jump\t// out\n        /* \"#utility.yul\":6018:6384   */\n    tag_124:\n        /* \"#utility.yul\":6160:6163   */\n      0x00\n        /* \"#utility.yul\":6181:6248   */\n      tag_199\n        /* \"#utility.yul\":6245:6247   */\n      0x1a\n        /* \"#utility.yul\":6240:6243   */\n      dup4\n        /* \"#utility.yul\":6181:6248   */\n      tag_120\n      jump\t// in\n    tag_199:\n        /* \"#utility.yul\":6174:6248   */\n      swap2\n      pop\n        /* \"#utility.yul\":6257:6350   */\n      tag_200\n        /* \"#utility.yul\":6346:6349   */\n      dup3\n        /* \"#utility.yul\":6257:6350   */\n      tag_123\n      jump\t// in\n    tag_200:\n        /* \"#utility.yul\":6375:6377   */\n      0x20\n        /* \"#utility.yul\":6370:6373   */\n      dup3\n        /* \"#utility.yul\":6366:6378   */\n      add\n        /* \"#utility.yul\":6359:6378   */\n      swap1\n      pop\n        /* \"#utility.yul\":6018:6384   */\n      swap2\n      swap1\n      pop\n      jump\t// out\n        /* \"#utility.yul\":6390:6809   */\n    tag_73:\n        /* \"#utility.yul\":6556:6560   */\n      0x00\n        /* \"#utility.yul\":6594:6596   */\n      0x20\n        /* \"#utility.yul\":6583:6592   */\n      dup3\n        /* \"#utility.yul\":6579:6597   */\n      add\n        /* \"#utility.yul\":6571:6597   */\n      swap1\n      pop\n        /* \"#utility.yul\":6643:6652   */\n      dup2\n        /* \"#utility.yul\":6637:6641   */\n      dup2\n        /* \"#utility.yul\":6633:6653   */\n      sub\n        /* \"#utility.yul\":6629:6630   */\n      0x00\n        /* \"#utility.yul\":6618:6627   */\n      dup4\n        /* \"#utility.yul\":6614:6631   */\n      add\n        /* \"#utility.yul\":6607:6654   */\n      mstore\n        /* \"#utility.yul\":6671:6802   */\n      tag_202\n        /* \"#utility.yul\":6797:6801   */\n      dup2\n        /* \"#utility.yul\":6671:6802   */\n      tag_124\n      jump\t// in\n    tag_202:\n        /* \"#utility.yul\":6663:6802   */\n      swap1\n      pop\n        /* \"#utility.yul\":6390:6809   */\n      swap2\n      swap1\n      pop\n      jump\t// out\n        /* \"#utility.yul\":6815:6988   */\n    tag_125:\n        /* \"#utility.yul\":6955:6980   */\n      0x596f75206861766520616c726561647920766f7465642e000000000000000000\n        /* \"#utility.yul\":6951:6952   */\n      0x00\n        /* \"#utility.yul\":6943:6949   */\n      dup3\n        /* \"#utility.yul\":6939:6953   */\n      add\n        /* \"#utility.yul\":6932:6981   */\n      mstore\n        /* \"#utility.yul\":6815:6988   */\n      pop\n      jump\t// out\n        /* \"#utility.yul\":6994:7360   */\n    tag_126:\n        /* \"#utility.yul\":7136:7139   */\n      0x00\n        /* \"#utility.yul\":7157:7224   */\n      tag_205\n        /* \"#utility.yul\":7221:7223   */\n      0x17\n        /* \"#utility.yul\":7216:7219   */\n      dup4\n        /* \"#utility.yul\":7157:7224   */\n      tag_120\n      jump\t// in\n    tag_205:\n        /* \"#utility.yul\":7150:7224   */\n      swap2\n      pop\n        /* \"#utility.yul\":7233:7326   */\n      tag_206\n        /* \"#utility.yul\":7322:7325   */\n      dup3\n        /* \"#utility.yul\":7233:7326   */\n      tag_125\n      jump\t// in\n    tag_206:\n        /* \"#utility.yul\":7351:7353   */\n      0x20\n        /* \"#utility.yul\":7346:7349   */\n      dup3\n        /* \"#utility.yul\":7342:7354   */\n      add\n        /* \"#utility.yul\":7335:7354   */\n      swap1\n      pop\n        /* \"#utility.yul\":6994:7360   */\n      swap2\n      swap1\n      pop\n      jump\t// out\n        /* \"#utility.yul\":7366:7785   */\n    tag_93:\n        /* \"#utility.yul\":7532:7536   */\n      0x00\n        /* \"#utility.yul\":7570:7572   */\n      0x20\n        /* \"#utility.yul\":7559:7568   */\n      dup3\n        /* \"#utility.yul\":7555:7573   */\n      add\n        /* \"#utility.yul\":7547:7573   */\n      swap1\n      pop\n        /* \"#utility.yul\":7619:7628   */\n      dup2\n        /* \"#utility.yul\":7613:7617   */\n      dup2\n        /* \"#utility.yul\":7609:7629   */\n      sub\n        /* \"#utility.yul\":7605:7606   */\n      0x00\n        /* \"#utility.yul\":7594:7603   */\n      dup4\n        /* \"#utility.yul\":7590:7607   */\n      add\n        /* \"#utility.yul\":7583:7630   */\n      mstore\n        /* \"#utility.yul\":7647:7778   */\n      tag_208\n        /* \"#utility.yul\":7773:7777   */\n      dup2\n        /* \"#utility.yul\":7647:7778   */\n      tag_126\n      jump\t// in\n    tag_208:\n        /* \"#utility.yul\":7639:7778   */\n      swap1\n      pop\n        /* \"#utility.yul\":7366:7785   */\n      swap2\n      swap1\n      pop\n      jump\t// out\n        /* \"#utility.yul\":7791:7959   */\n    tag_127:\n        /* \"#utility.yul\":7931:7951   */\n      0x496e76616c69642063616e6469646174652e0000000000000000000000000000\n        /* \"#utility.yul\":7927:7928   */\n      0x00\n        /* \"#utility.yul\":7919:7925   */\n      dup3\n        /* \"#utility.yul\":7915:7929   */\n      add\n        /* \"#utility.yul\":7908:7952   */\n      mstore\n        /* \"#utility.yul\":7791:7959   */\n      pop\n      jump\t// out\n        /* \"#utility.yul\":7965:8331   */\n    tag_128:\n        /* \"#utility.yul\":8107:8110   */\n      0x00\n        /* \"#utility.yul\":8128:8195   */\n      tag_211\n        /* \"#utility.yul\":8192:8194   */\n      0x12\n        /* \"#utility.yul\":8187:8190   */\n      dup4\n        /* \"#utility.yul\":8128:8195   */\n      tag_120\n      jump\t// in\n    tag_211:\n        /* \"#utility.yul\":8121:8195   */\n      swap2\n      pop\n        /* \"#utility.yul\":8204:8297   */\n      tag_212\n        /* \"#utility.yul\":8293:8296   */\n      dup3\n        /* \"#utility.yul\":8204:8297   */\n      tag_127\n      jump\t// in\n    tag_212:\n        /* \"#utility.yul\":8322:8324   */\n      0x20\n        /* \"#utility.yul\":8317:8320   */\n      dup3\n        /* \"#utility.yul\":8313:8325   */\n      add\n        /* \"#utility.yul\":8306:8325   */\n      swap1\n      pop\n        /* \"#utility.yul\":7965:8331   */\n      swap2\n      swap1\n      pop\n      jump\t// out\n        /* \"#utility.yul\":8337:8756   */\n    tag_97:\n        /* \"#utility.yul\":8503:8507   */\n      0x00\n        /* \"#utility.yul\":8541:8543   */\n      0x20\n        /* \"#utility.yul\":8530:8539   */\n      dup3\n        /* \"#utility.yul\":8526:8544   */\n      add\n        /* \"#utility.yul\":8518:8544   */\n      swap1\n      pop\n        /* \"#utility.yul\":8590:8599   */\n      dup2\n        /* \"#utility.yul\":8584:8588   */\n      dup2\n        /* \"#utility.yul\":8580:8600   */\n      sub\n        /* \"#utility.yul\":8576:8577   */\n      0x00\n        /* \"#utility.yul\":8565:8574   */\n      dup4\n        /* \"#utility.yul\":8561:8578   */\n      add\n        /* \"#utility.yul\":8554:8601   */\n      mstore\n        /* \"#utility.yul\":8618:8749   */\n      tag_214\n        /* \"#utility.yul\":8744:8748   */\n      dup2\n        /* \"#utility.yul\":8618:8749   */\n      tag_128\n      jump\t// in\n    tag_214:\n        /* \"#utility.yul\":8610:8749   */\n      swap1\n      pop\n        /* \"#utility.yul\":8337:8756   */\n      swap2\n      swap1\n      pop\n      jump\t// out\n        /* \"#utility.yul\":8762:8950   */\n    tag_99:\n        /* \"#utility.yul\":8800:8803   */\n      0x00\n        /* \"#utility.yul\":8819:8837   */\n      tag_216\n        /* \"#utility.yul\":8835:8836   */\n      dup3\n        /* \"#utility.yul\":8819:8837   */\n      tag_114\n      jump\t// in\n    tag_216:\n        /* \"#utility.yul\":8814:8837   */\n      swap2\n      pop\n        /* \"#utility.yul\":8851:8869   */\n      tag_217\n        /* \"#utility.yul\":8867:8868   */\n      dup4\n        /* \"#utility.yul\":8851:8869   */\n      tag_114\n      jump\t// in\n    tag_217:\n        /* \"#utility.yul\":8846:8869   */\n      swap3\n      pop\n        /* \"#utility.yul\":8892:8893   */\n      dup3\n        /* \"#utility.yul\":8889:8890   */\n      dup3\n        /* \"#utility.yul\":8885:8894   */\n      add\n        /* \"#utility.yul\":8878:8894   */\n      swap1\n      pop\n        /* \"#utility.yul\":8915:8919   */\n      0xff\n        /* \"#utility.yul\":8910:8913   */\n      dup2\n        /* \"#utility.yul\":8907:8920   */\n      gt\n        /* \"#utility.yul\":8904:8943   */\n      iszero\n      tag_218\n      jumpi\n        /* \"#utility.yul\":8923:8941   */\n      tag_219\n      tag_119\n      jump\t// in\n    tag_219:\n        /* \"#utility.yul\":8904:8943   */\n    tag_218:\n        /* \"#utility.yul\":8762:8950   */\n      swap3\n      swap2\n      pop\n      pop\n      jump\t// out\n\n    auxdata: 0xa26469706673582212201cb252fc59b516c8280ddd49fcb9492c446ec75e300f68df31bf8f991f291fb264736f6c634300081e0033\n}\n",
				"bytecode": {
					"linkReferences": {},
					"object": "608060405234801561000f575f5ffd5b50604051610dcb380380610dcb8339818101604052810190610031919061028e565b8160019080519060200190610047929190610061565b5080426100549190610315565b6003819055505050610348565b828054828255905f5260205f2090810192821561009b579160200282015b8281111561009a57825182559160200191906001019061007f565b5b5090506100a891906100ac565b5090565b5b808211156100c3575f815f9055506001016100ad565b5090565b5f604051905090565b5f5ffd5b5f5ffd5b5f5ffd5b5f601f19601f8301169050919050565b7f4e487b71000000000000000000000000000000000000000000000000000000005f52604160045260245ffd5b610122826100dc565b810181811067ffffffffffffffff82111715610141576101406100ec565b5b80604052505050565b5f6101536100c7565b905061015f8282610119565b919050565b5f67ffffffffffffffff82111561017e5761017d6100ec565b5b602082029050602081019050919050565b5f5ffd5b5f819050919050565b6101a581610193565b81146101af575f5ffd5b50565b5f815190506101c08161019c565b92915050565b5f6101d86101d384610164565b61014a565b905080838252602082019050602084028301858111156101fb576101fa61018f565b5b835b81811015610224578061021088826101b2565b8452602084019350506020810190506101fd565b5050509392505050565b5f82601f830112610242576102416100d8565b5b81516102528482602086016101c6565b91505092915050565b5f819050919050565b61026d8161025b565b8114610277575f5ffd5b50565b5f8151905061028881610264565b92915050565b5f5f604083850312156102a4576102a36100d0565b5b5f83015167ffffffffffffffff8111156102c1576102c06100d4565b5b6102cd8582860161022e565b92505060206102de8582860161027a565b9150509250929050565b7f4e487b71000000000000000000000000000000000000000000000000000000005f52601160045260245ffd5b5f61031f8261025b565b915061032a8361025b565b9250828201905080821115610342576103416102e8565b5b92915050565b610a76806103555f395ff3fe608060405234801561000f575f5ffd5b5060043610610091575f3560e01c8063392e667811610064578063392e6678146101315780637021939f146101615780638e7ea5b214610191578063b13c744b146101af578063cc9ab267146101df57610091565b8063036ee8501461009557806309eef43e146100b35780631300a6d1146100e35780632f265cf714610101575b5f5ffd5b61009d6101fb565b6040516100aa91906105eb565b60405180910390f35b6100cd60048036038101906100c89190610662565b610201565b6040516100da91906106a7565b60405180910390f35b6100eb61021e565b6040516100f891906105eb565b60405180910390f35b61011b600480360381019061011691906106f3565b610244565b6040516101289190610739565b60405180910390f35b61014b600480360381019061014691906106f3565b6102b1565b60405161015891906106a7565b60405180910390f35b61017b600480360381019061017691906106f3565b610308565b6040516101889190610739565b60405180910390f35b610199610324565b6040516101a69190610761565b60405180910390f35b6101c960048036038101906101c491906107a4565b610438565b6040516101d69190610761565b60405180910390f35b6101f960048036038101906101f491906106f3565b610458565b005b60035481565b6002602052805f5260405f205f915054906101000a900460ff1681565b5f6003544210610230575f9050610241565b4260035461023e91906107fc565b90505b90565b5f61024e826102b1565b61028d576040517f08c379a000000000000000000000000000000000000000000000000000000000815260040161028490610889565b60405180910390fd5b5f5f8381526020019081526020015f205f9054906101000a900460ff169050919050565b5f5f5f90505b6001805490508110156102fe5782600182815481106102d9576102d86108a7565b5b905f5260205f200154036102f1576001915050610303565b80806001019150506102b7565b505f90505b919050565b5f602052805f5260405f205f915054906101000a900460ff1681565b5f60035442101561036a576040517f08c379a00000000000000000000000000000000000000000000000000000000081526004016103619061091e565b60405180910390fd5b5f5f5f90505f5f90505b60018054905081101561042f578160ff165f5f6001848154811061039b5761039a6108a7565b5b905f5260205f20015481526020019081526020015f205f9054906101000a900460ff1660ff161115610422575f5f600183815481106103dd576103dc6108a7565b5b905f5260205f20015481526020019081526020015f205f9054906101000a900460ff16915060018181548110610416576104156108a7565b5b905f5260205f20015492505b8080600101915050610374565b50819250505090565b60018181548110610447575f80fd5b905f5260205f20015f915090505481565b6003544210610465575f5ffd5b60025f3373ffffffffffffffffffffffffffffffffffffffff1673ffffffffffffffffffffffffffffffffffffffff1681526020019081526020015f205f9054906101000a900460ff16156104ef576040517f08c379a00000000000000000000000000000000000000000000000000000000081526004016104e690610986565b60405180910390fd5b6104f8816102b1565b610537576040517f08c379a000000000000000000000000000000000000000000000000000000000815260040161052e906109ee565b60405180910390fd5b60015f5f8381526020019081526020015f205f8282829054906101000a900460ff166105639190610a0c565b92506101000a81548160ff021916908360ff160217905550600160025f3373ffffffffffffffffffffffffffffffffffffffff1673ffffffffffffffffffffffffffffffffffffffff1681526020019081526020015f205f6101000a81548160ff02191690831515021790555050565b5f819050919050565b6105e5816105d3565b82525050565b5f6020820190506105fe5f8301846105dc565b92915050565b5f5ffd5b5f73ffffffffffffffffffffffffffffffffffffffff82169050919050565b5f61063182610608565b9050919050565b61064181610627565b811461064b575f5ffd5b50565b5f8135905061065c81610638565b92915050565b5f6020828403121561067757610676610604565b5b5f6106848482850161064e565b91505092915050565b5f8115159050919050565b6106a18161068d565b82525050565b5f6020820190506106ba5f830184610698565b92915050565b5f819050919050565b6106d2816106c0565b81146106dc575f5ffd5b50565b5f813590506106ed816106c9565b92915050565b5f6020828403121561070857610707610604565b5b5f610715848285016106df565b91505092915050565b5f60ff82169050919050565b6107338161071e565b82525050565b5f60208201905061074c5f83018461072a565b92915050565b61075b816106c0565b82525050565b5f6020820190506107745f830184610752565b92915050565b610783816105d3565b811461078d575f5ffd5b50565b5f8135905061079e8161077a565b92915050565b5f602082840312156107b9576107b8610604565b5b5f6107c684828501610790565b91505092915050565b7f4e487b71000000000000000000000000000000000000000000000000000000005f52601160045260245ffd5b5f610806826105d3565b9150610811836105d3565b9250828203905081811115610829576108286107cf565b5b92915050565b5f82825260208201905092915050565b7f496e76616c69642063616e6469646174650000000000000000000000000000005f82015250565b5f61087360118361082f565b915061087e8261083f565b602082019050919050565b5f6020820190508181035f8301526108a081610867565b9050919050565b7f4e487b71000000000000000000000000000000000000000000000000000000005f52603260045260245ffd5b7f566f74696e67206973207374696c6c206f6e676f696e672e2e2e0000000000005f82015250565b5f610908601a8361082f565b9150610913826108d4565b602082019050919050565b5f6020820190508181035f830152610935816108fc565b9050919050565b7f596f75206861766520616c726561647920766f7465642e0000000000000000005f82015250565b5f61097060178361082f565b915061097b8261093c565b602082019050919050565b5f6020820190508181035f83015261099d81610964565b9050919050565b7f496e76616c69642063616e6469646174652e00000000000000000000000000005f82015250565b5f6109d860128361082f565b91506109e3826109a4565b602082019050919050565b5f6020820190508181035f830152610a05816109cc565b9050919050565b5f610a168261071e565b9150610a218361071e565b9250828201905060ff811115610a3a57610a396107cf565b5b9291505056fea26469706673582212201cb252fc59b516c8280ddd49fcb9492c446ec75e300f68df31bf8f991f291fb264736f6c634300081e0033",
					"opcodes": "PUSH1 0x80 PUSH1 0x40 MSTORE CALLVALUE DUP1 ISZERO PUSH2 0xF JUMPI PUSH0 PUSH0 REVERT JUMPDEST POP PUSH1 0x40 MLOAD PUSH2 0xDCB CODESIZE SUB DUP1 PUSH2 0xDCB DUP4 CODECOPY DUP2 DUP2 ADD PUSH1 0x40 MSTORE DUP2 ADD SWAP1 PUSH2 0x31 SWAP2 SWAP1 PUSH2 0x28E JUMP JUMPDEST DUP2 PUSH1 0x1 SWAP1 DUP1 MLOAD SWAP1 PUSH1 0x20 ADD SWAP1 PUSH2 0x47 SWAP3 SWAP2 SWAP1 PUSH2 0x61 JUMP JUMPDEST POP DUP1 TIMESTAMP PUSH2 0x54 SWAP2 SWAP1 PUSH2 0x315 JUMP JUMPDEST PUSH1 0x3 DUP2 SWAP1 SSTORE POP POP POP PUSH2 0x348 JUMP JUMPDEST DUP3 DUP1 SLOAD DUP3 DUP3 SSTORE SWAP1 PUSH0 MSTORE PUSH1 0x20 PUSH0 KECCAK256 SWAP1 DUP2 ADD SWAP3 DUP3 ISZERO PUSH2 0x9B JUMPI SWAP2 PUSH1 0x20 MUL DUP3 ADD JUMPDEST DUP3 DUP2 GT ISZERO PUSH2 0x9A JUMPI DUP3 MLOAD DUP3 SSTORE SWAP2 PUSH1 0x20 ADD SWAP2 SWAP1 PUSH1 0x1 ADD SWAP1 PUSH2 0x7F JUMP JUMPDEST JUMPDEST POP SWAP1 POP PUSH2 0xA8 SWAP2 SWAP1 PUSH2 0xAC JUMP JUMPDEST POP SWAP1 JUMP JUMPDEST JUMPDEST DUP1 DUP3 GT ISZERO PUSH2 0xC3 JUMPI PUSH0 DUP2 PUSH0 SWAP1 SSTORE POP PUSH1 0x1 ADD PUSH2 0xAD JUMP JUMPDEST POP SWAP1 JUMP JUMPDEST PUSH0 PUSH1 0x40 MLOAD SWAP1 POP SWAP1 JUMP JUMPDEST PUSH0 PUSH0 REVERT JUMPDEST PUSH0 PUSH0 REVERT JUMPDEST PUSH0 PUSH0 REVERT JUMPDEST PUSH0 PUSH1 0x1F NOT PUSH1 0x1F DUP4 ADD AND SWAP1 POP SWAP2 SWAP1 POP JUMP JUMPDEST PUSH32 0x4E487B7100000000000000000000000000000000000000000000000000000000 PUSH0 MSTORE PUSH1 0x41 PUSH1 0x4 MSTORE PUSH1 0x24 PUSH0 REVERT JUMPDEST PUSH2 0x122 DUP3 PUSH2 0xDC JUMP JUMPDEST DUP2 ADD DUP2 DUP2 LT PUSH8 0xFFFFFFFFFFFFFFFF DUP3 GT OR ISZERO PUSH2 0x141 JUMPI PUSH2 0x140 PUSH2 0xEC JUMP JUMPDEST JUMPDEST DUP1 PUSH1 0x40 MSTORE POP POP POP JUMP JUMPDEST PUSH0 PUSH2 0x153 PUSH2 0xC7 JUMP JUMPDEST SWAP1 POP PUSH2 0x15F DUP3 DUP3 PUSH2 0x119 JUMP JUMPDEST SWAP2 SWAP1 POP JUMP JUMPDEST PUSH0 PUSH8 0xFFFFFFFFFFFFFFFF DUP3 GT ISZERO PUSH2 0x17E JUMPI PUSH2 0x17D PUSH2 0xEC JUMP JUMPDEST JUMPDEST PUSH1 0x20 DUP3 MUL SWAP1 POP PUSH1 0x20 DUP2 ADD SWAP1 POP SWAP2 SWAP1 POP JUMP JUMPDEST PUSH0 PUSH0 REVERT JUMPDEST PUSH0 DUP2 SWAP1 POP SWAP2 SWAP1 POP JUMP JUMPDEST PUSH2 0x1A5 DUP2 PUSH2 0x193 JUMP JUMPDEST DUP2 EQ PUSH2 0x1AF JUMPI PUSH0 PUSH0 REVERT JUMPDEST POP JUMP JUMPDEST PUSH0 DUP2 MLOAD SWAP1 POP PUSH2 0x1C0 DUP2 PUSH2 0x19C JUMP JUMPDEST SWAP3 SWAP2 POP POP JUMP JUMPDEST PUSH0 PUSH2 0x1D8 PUSH2 0x1D3 DUP5 PUSH2 0x164 JUMP JUMPDEST PUSH2 0x14A JUMP JUMPDEST SWAP1 POP DUP1 DUP4 DUP3 MSTORE PUSH1 0x20 DUP3 ADD SWAP1 POP PUSH1 0x20 DUP5 MUL DUP4 ADD DUP6 DUP2 GT ISZERO PUSH2 0x1FB JUMPI PUSH2 0x1FA PUSH2 0x18F JUMP JUMPDEST JUMPDEST DUP4 JUMPDEST DUP2 DUP2 LT ISZERO PUSH2 0x224 JUMPI DUP1 PUSH2 0x210 DUP9 DUP3 PUSH2 0x1B2 JUMP JUMPDEST DUP5 MSTORE PUSH1 0x20 DUP5 ADD SWAP4 POP POP PUSH1 0x20 DUP2 ADD SWAP1 POP PUSH2 0x1FD JUMP JUMPDEST POP POP POP SWAP4 SWAP3 POP POP POP JUMP JUMPDEST PUSH0 DUP3 PUSH1 0x1F DUP4 ADD SLT PUSH2 0x242 JUMPI PUSH2 0x241 PUSH2 0xD8 JUMP JUMPDEST JUMPDEST DUP2 MLOAD PUSH2 0x252 DUP5 DUP3 PUSH1 0x20 DUP7 ADD PUSH2 0x1C6 JUMP JUMPDEST SWAP2 POP POP SWAP3 SWAP2 POP POP JUMP JUMPDEST PUSH0 DUP2 SWAP1 POP SWAP2 SWAP1 POP JUMP JUMPDEST PUSH2 0x26D DUP2 PUSH2 0x25B JUMP JUMPDEST DUP2 EQ PUSH2 0x277 JUMPI PUSH0 PUSH0 REVERT JUMPDEST POP JUMP JUMPDEST PUSH0 DUP2 MLOAD SWAP1 POP PUSH2 0x288 DUP2 PUSH2 0x264 JUMP JUMPDEST SWAP3 SWAP2 POP POP JUMP JUMPDEST PUSH0 PUSH0 PUSH1 0x40 DUP4 DUP6 SUB SLT ISZERO PUSH2 0x2A4 JUMPI PUSH2 0x2A3 PUSH2 0xD0 JUMP JUMPDEST JUMPDEST PUSH0 DUP4 ADD MLOAD PUSH8 0xFFFFFFFFFFFFFFFF DUP2 GT ISZERO PUSH2 0x2C1 JUMPI PUSH2 0x2C0 PUSH2 0xD4 JUMP JUMPDEST JUMPDEST PUSH2 0x2CD DUP6 DUP3 DUP7 ADD PUSH2 0x22E JUMP JUMPDEST SWAP3 POP POP PUSH1 0x20 PUSH2 0x2DE DUP6 DUP3 DUP7 ADD PUSH2 0x27A JUMP JUMPDEST SWAP2 POP POP SWAP3 POP SWAP3 SWAP1 POP JUMP JUMPDEST PUSH32 0x4E487B7100000000000000000000000000000000000000000000000000000000 PUSH0 MSTORE PUSH1 0x11 PUSH1 0x4 MSTORE PUSH1 0x24 PUSH0 REVERT JUMPDEST PUSH0 PUSH2 0x31F DUP3 PUSH2 0x25B JUMP JUMPDEST SWAP2 POP PUSH2 0x32A DUP4 PUSH2 0x25B JUMP JUMPDEST SWAP3 POP DUP3 DUP3 ADD SWAP1 POP DUP1 DUP3 GT ISZERO PUSH2 0x342 JUMPI PUSH2 0x341 PUSH2 0x2E8 JUMP JUMPDEST JUMPDEST SWAP3 SWAP2 POP POP JUMP JUMPDEST PUSH2 0xA76 DUP1 PUSH2 0x355 PUSH0 CODECOPY PUSH0 RETURN INVALID PUSH1 0x80 PUSH1 0x40 MSTORE CALLVALUE DUP1 ISZERO PUSH2 0xF JUMPI PUSH0 PUSH0 REVERT JUMPDEST POP PUSH1 0x4 CALLDATASIZE LT PUSH2 0x91 JUMPI PUSH0 CALLDATALOAD PUSH1 0xE0 SHR DUP1 PUSH4 0x392E6678 GT PUSH2 0x64 JUMPI DUP1 PUSH4 0x392E6678 EQ PUSH2 0x131 JUMPI DUP1 PUSH4 0x7021939F EQ PUSH2 0x161 JUMPI DUP1 PUSH4 0x8E7EA5B2 EQ PUSH2 0x191 JUMPI DUP1 PUSH4 0xB13C744B EQ PUSH2 0x1AF JUMPI DUP1 PUSH4 0xCC9AB267 EQ PUSH2 0x1DF JUMPI PUSH2 0x91 JUMP JUMPDEST DUP1 PUSH4 0x36EE850 EQ PUSH2 0x95 JUMPI DUP1 PUSH4 0x9EEF43E EQ PUSH2 0xB3 JUMPI DUP1 PUSH4 0x1300A6D1 EQ PUSH2 0xE3 JUMPI DUP1 PUSH4 0x2F265CF7 EQ PUSH2 0x101 JUMPI JUMPDEST PUSH0 PUSH0 REVERT JUMPDEST PUSH2 0x9D PUSH2 0x1FB JUMP JUMPDEST PUSH1 0x40 MLOAD PUSH2 0xAA SWAP2 SWAP1 PUSH2 0x5EB JUMP JUMPDEST PUSH1 0x40 MLOAD DUP1 SWAP2 SUB SWAP1 RETURN JUMPDEST PUSH2 0xCD PUSH1 0x4 DUP1 CALLDATASIZE SUB DUP2 ADD SWAP1 PUSH2 0xC8 SWAP2 SWAP1 PUSH2 0x662 JUMP JUMPDEST PUSH2 0x201 JUMP JUMPDEST PUSH1 0x40 MLOAD PUSH2 0xDA SWAP2 SWAP1 PUSH2 0x6A7 JUMP JUMPDEST PUSH1 0x40 MLOAD DUP1 SWAP2 SUB SWAP1 RETURN JUMPDEST PUSH2 0xEB PUSH2 0x21E JUMP JUMPDEST PUSH1 0x40 MLOAD PUSH2 0xF8 SWAP2 SWAP1 PUSH2 0x5EB JUMP JUMPDEST PUSH1 0x40 MLOAD DUP1 SWAP2 SUB SWAP1 RETURN JUMPDEST PUSH2 0x11B PUSH1 0x4 DUP1 CALLDATASIZE SUB DUP2 ADD SWAP1 PUSH2 0x116 SWAP2 SWAP1 PUSH2 0x6F3 JUMP JUMPDEST PUSH2 0x244 JUMP JUMPDEST PUSH1 0x40 MLOAD PUSH2 0x128 SWAP2 SWAP1 PUSH2 0x739 JUMP JUMPDEST PUSH1 0x40 MLOAD DUP1 SWAP2 SUB SWAP1 RETURN JUMPDEST PUSH2 0x14B PUSH1 0x4 DUP1 CALLDATASIZE SUB DUP2 ADD SWAP1 PUSH2 0x146 SWAP2 SWAP1 PUSH2 0x6F3 JUMP JUMPDEST PUSH2 0x2B1 JUMP JUMPDEST PUSH1 0x40 MLOAD PUSH2 0x158 SWAP2 SWAP1 PUSH2 0x6A7 JUMP JUMPDEST PUSH1 0x40 MLOAD DUP1 SWAP2 SUB SWAP1 RETURN JUMPDEST PUSH2 0x17B PUSH1 0x4 DUP1 CALLDATASIZE SUB DUP2 ADD SWAP1 PUSH2 0x176 SWAP2 SWAP1 PUSH2 0x6F3 JUMP JUMPDEST PUSH2 0x308 JUMP JUMPDEST PUSH1 0x40 MLOAD PUSH2 0x188 SWAP2 SWAP1 PUSH2 0x739 JUMP JUMPDEST PUSH1 0x40 MLOAD DUP1 SWAP2 SUB SWAP1 RETURN JUMPDEST PUSH2 0x199 PUSH2 0x324 JUMP JUMPDEST PUSH1 0x40 MLOAD PUSH2 0x1A6 SWAP2 SWAP1 PUSH2 0x761 JUMP JUMPDEST PUSH1 0x40 MLOAD DUP1 SWAP2 SUB SWAP1 RETURN JUMPDEST PUSH2 0x1C9 PUSH1 0x4 DUP1 CALLDATASIZE SUB DUP2 ADD SWAP1 PUSH2 0x1C4 SWAP2 SWAP1 PUSH2 0x7A4 JUMP JUMPDEST PUSH2 0x438 JUMP JUMPDEST PUSH1 0x40 MLOAD PUSH2 0x1D6 SWAP2 SWAP1 PUSH2 0x761 JUMP JUMPDEST PUSH1 0x40 MLOAD DUP1 SWAP2 SUB SWAP1 RETURN JUMPDEST PUSH2 0x1F9 PUSH1 0x4 DUP1 CALLDATASIZE SUB DUP2 ADD SWAP1 PUSH2 0x1F4 SWAP2 SWAP1 PUSH2 0x6F3 JUMP JUMPDEST PUSH2 0x458 JUMP JUMPDEST STOP JUMPDEST PUSH1 0x3 SLOAD DUP2 JUMP JUMPDEST PUSH1 0x2 PUSH1 0x20 MSTORE DUP1 PUSH0 MSTORE PUSH1 0x40 PUSH0 KECCAK256 PUSH0 SWAP2 POP SLOAD SWAP1 PUSH2 0x100 EXP SWAP1 DIV PUSH1 0xFF AND DUP2 JUMP JUMPDEST PUSH0 PUSH1 0x3 SLOAD TIMESTAMP LT PUSH2 0x230 JUMPI PUSH0 SWAP1 POP PUSH2 0x241 JUMP JUMPDEST TIMESTAMP PUSH1 0x3 SLOAD PUSH2 0x23E SWAP2 SWAP1 PUSH2 0x7FC JUMP JUMPDEST SWAP1 POP JUMPDEST SWAP1 JUMP JUMPDEST PUSH0 PUSH2 0x24E DUP3 PUSH2 0x2B1 JUMP JUMPDEST PUSH2 0x28D JUMPI PUSH1 0x40 MLOAD PUSH32 0x8C379A000000000000000000000000000000000000000000000000000000000 DUP2 MSTORE PUSH1 0x4 ADD PUSH2 0x284 SWAP1 PUSH2 0x889 JUMP JUMPDEST PUSH1 0x40 MLOAD DUP1 SWAP2 SUB SWAP1 REVERT JUMPDEST PUSH0 PUSH0 DUP4 DUP2 MSTORE PUSH1 0x20 ADD SWAP1 DUP2 MSTORE PUSH1 0x20 ADD PUSH0 KECCAK256 PUSH0 SWAP1 SLOAD SWAP1 PUSH2 0x100 EXP SWAP1 DIV PUSH1 0xFF AND SWAP1 POP SWAP2 SWAP1 POP JUMP JUMPDEST PUSH0 PUSH0 PUSH0 SWAP1 POP JUMPDEST PUSH1 0x1 DUP1 SLOAD SWAP1 POP DUP2 LT ISZERO PUSH2 0x2FE JUMPI DUP3 PUSH1 0x1 DUP3 DUP2 SLOAD DUP2 LT PUSH2 0x2D9 JUMPI PUSH2 0x2D8 PUSH2 0x8A7 JUMP JUMPDEST JUMPDEST SWAP1 PUSH0 MSTORE PUSH1 0x20 PUSH0 KECCAK256 ADD SLOAD SUB PUSH2 0x2F1 JUMPI PUSH1 0x1 SWAP2 POP POP PUSH2 0x303 JUMP JUMPDEST DUP1 DUP1 PUSH1 0x1 ADD SWAP2 POP POP PUSH2 0x2B7 JUMP JUMPDEST POP PUSH0 SWAP1 POP JUMPDEST SWAP2 SWAP1 POP JUMP JUMPDEST PUSH0 PUSH1 0x20 MSTORE DUP1 PUSH0 MSTORE PUSH1 0x40 PUSH0 KECCAK256 PUSH0 SWAP2 POP SLOAD SWAP1 PUSH2 0x100 EXP SWAP1 DIV PUSH1 0xFF AND DUP2 JUMP JUMPDEST PUSH0 PUSH1 0x3 SLOAD TIMESTAMP LT ISZERO PUSH2 0x36A JUMPI PUSH1 0x40 MLOAD PUSH32 0x8C379A000000000000000000000000000000000000000000000000000000000 DUP2 MSTORE PUSH1 0x4 ADD PUSH2 0x361 SWAP1 PUSH2 0x91E JUMP JUMPDEST PUSH1 0x40 MLOAD DUP1 SWAP2 SUB SWAP1 REVERT JUMPDEST PUSH0 PUSH0 PUSH0 SWAP1 POP PUSH0 PUSH0 SWAP1 POP JUMPDEST PUSH1 0x1 DUP1 SLOAD SWAP1 POP DUP2 LT ISZERO PUSH2 0x42F JUMPI DUP2 PUSH1 0xFF AND PUSH0 PUSH0 PUSH1 0x1 DUP5 DUP2 SLOAD DUP2 LT PUSH2 0x39B JUMPI PUSH2 0x39A PUSH2 0x8A7 JUMP JUMPDEST JUMPDEST SWAP1 PUSH0 MSTORE PUSH1 0x20 PUSH0 KECCAK256 ADD SLOAD DUP2 MSTORE PUSH1 0x20 ADD SWAP1 DUP2 MSTORE PUSH1 0x20 ADD PUSH0 KECCAK256 PUSH0 SWAP1 SLOAD SWAP1 PUSH2 0x100 EXP SWAP1 DIV PUSH1 0xFF AND PUSH1 0xFF AND GT ISZERO PUSH2 0x422 JUMPI PUSH0 PUSH0 PUSH1 0x1 DUP4 DUP2 SLOAD DUP2 LT PUSH2 0x3DD JUMPI PUSH2 0x3DC PUSH2 0x8A7 JUMP JUMPDEST JUMPDEST SWAP1 PUSH0 MSTORE PUSH1 0x20 PUSH0 KECCAK256 ADD SLOAD DUP2 MSTORE PUSH1 0x20 ADD SWAP1 DUP2 MSTORE PUSH1 0x20 ADD PUSH0 KECCAK256 PUSH0 SWAP1 SLOAD SWAP1 PUSH2 0x100 EXP SWAP1 DIV PUSH1 0xFF AND SWAP2 POP PUSH1 0x1 DUP2 DUP2 SLOAD DUP2 LT PUSH2 0x416 JUMPI PUSH2 0x415 PUSH2 0x8A7 JUMP JUMPDEST JUMPDEST SWAP1 PUSH0 MSTORE PUSH1 0x20 PUSH0 KECCAK256 ADD SLOAD SWAP3 POP JUMPDEST DUP1 DUP1 PUSH1 0x1 ADD SWAP2 POP POP PUSH2 0x374 JUMP JUMPDEST POP DUP2 SWAP3 POP POP POP SWAP1 JUMP JUMPDEST PUSH1 0x1 DUP2 DUP2 SLOAD DUP2 LT PUSH2 0x447 JUMPI PUSH0 DUP1 REVERT JUMPDEST SWAP1 PUSH0 MSTORE PUSH1 0x20 PUSH0 KECCAK256 ADD PUSH0 SWAP2 POP SWAP1 POP SLOAD DUP2 JUMP JUMPDEST PUSH1 0x3 SLOAD TIMESTAMP LT PUSH2 0x465 JUMPI PUSH0 PUSH0 REVERT JUMPDEST PUSH1 0x2 PUSH0 CALLER PUSH20 0xFFFFFFFFFFFFFFFFFFFFFFFFFFFFFFFFFFFFFFFF AND PUSH20 0xFFFFFFFFFFFFFFFFFFFFFFFFFFFFFFFFFFFFFFFF AND DUP2 MSTORE PUSH1 0x20 ADD SWAP1 DUP2 MSTORE PUSH1 0x20 ADD PUSH0 KECCAK256 PUSH0 SWAP1 SLOAD SWAP1 PUSH2 0x100 EXP SWAP1 DIV PUSH1 0xFF AND ISZERO PUSH2 0x4EF JUMPI PUSH1 0x40 MLOAD PUSH32 0x8C379A000000000000000000000000000000000000000000000000000000000 DUP2 MSTORE PUSH1 0x4 ADD PUSH2 0x4E6 SWAP1 PUSH2 0x986 JUMP JUMPDEST PUSH1 0x40 MLOAD DUP1 SWAP2 SUB SWAP1 REVERT JUMPDEST PUSH2 0x4F8 DUP2 PUSH2 0x2B1 JUMP JUMPDEST PUSH2 0x537 JUMPI PUSH1 0x40 MLOAD PUSH32 0x8C379A000000000000000000000000000000000000000000000000000000000 DUP2 MSTORE PUSH1 0x4 ADD PUSH2 0x52E SWAP1 PUSH2 0x9EE JUMP JUMPDEST PUSH1 0x40 MLOAD DUP1 SWAP2 SUB SWAP1 REVERT JUMPDEST PUSH1 0x1 PUSH0 PUSH0 DUP4 DUP2 MSTORE PUSH1 0x20 ADD SWAP1 DUP2 MSTORE PUSH1 0x20 ADD PUSH0 KECCAK256 PUSH0 DUP3 DUP3 DUP3 SWAP1 SLOAD SWAP1 PUSH2 0x100 EXP SWAP1 DIV PUSH1 0xFF AND PUSH2 0x563 SWAP2 SWAP1 PUSH2 0xA0C JUMP JUMPDEST SWAP3 POP PUSH2 0x100 EXP DUP2 SLOAD DUP2 PUSH1 0xFF MUL NOT AND SWAP1 DUP4 PUSH1 0xFF AND MUL OR SWAP1 SSTORE POP PUSH1 0x1 PUSH1 0x2 PUSH0 CALLER PUSH20 0xFFFFFFFFFFFFFFFFFFFFFFFFFFFFFFFFFFFFFFFF AND PUSH20 0xFFFFFFFFFFFFFFFFFFFFFFFFFFFFFFFFFFFFFFFF AND DUP2 MSTORE PUSH1 0x20 ADD SWAP1 DUP2 MSTORE PUSH1 0x20 ADD PUSH0 KECCAK256 PUSH0 PUSH2 0x100 EXP DUP2 SLOAD DUP2 PUSH1 0xFF MUL NOT AND SWAP1 DUP4 ISZERO ISZERO MUL OR SWAP1 SSTORE POP POP JUMP JUMPDEST PUSH0 DUP2 SWAP1 POP SWAP2 SWAP1 POP JUMP JUMPDEST PUSH2 0x5E5 DUP2 PUSH2 0x5D3 JUMP JUMPDEST DUP3 MSTORE POP POP JUMP JUMPDEST PUSH0 PUSH1 0x20 DUP3 ADD SWAP1 POP PUSH2 0x5FE PUSH0 DUP4 ADD DUP5 PUSH2 0x5DC JUMP JUMPDEST SWAP3 SWAP2 POP POP JUMP JUMPDEST PUSH0 PUSH0 REVERT JUMPDEST PUSH0 PUSH20 0xFFFFFFFFFFFFFFFFFFFFFFFFFFFFFFFFFFFFFFFF DUP3 AND SWAP1 POP SWAP2 SWAP1 POP JUMP JUMPDEST PUSH0 PUSH2 0x631 DUP3 PUSH2 0x608 JUMP JUMPDEST SWAP1 POP SWAP2 SWAP1 POP JUMP JUMPDEST PUSH2 0x641 DUP2 PUSH2 0x627 JUMP JUMPDEST DUP2 EQ PUSH2 0x64B JUMPI PUSH0 PUSH0 REVERT JUMPDEST POP JUMP JUMPDEST PUSH0 DUP2 CALLDATALOAD SWAP1 POP PUSH2 0x65C DUP2 PUSH2 0x638 JUMP JUMPDEST SWAP3 SWAP2 POP POP JUMP JUMPDEST PUSH0 PUSH1 0x20 DUP3 DUP5 SUB SLT ISZERO PUSH2 0x677 JUMPI PUSH2 0x676 PUSH2 0x604 JUMP JUMPDEST JUMPDEST PUSH0 PUSH2 0x684 DUP5 DUP3 DUP6 ADD PUSH2 0x64E JUMP JUMPDEST SWAP2 POP POP SWAP3 SWAP2 POP POP JUMP JUMPDEST PUSH0 DUP2 ISZERO ISZERO SWAP1 POP SWAP2 SWAP1 POP JUMP JUMPDEST PUSH2 0x6A1 DUP2 PUSH2 0x68D JUMP JUMPDEST DUP3 MSTORE POP POP JUMP JUMPDEST PUSH0 PUSH1 0x20 DUP3 ADD SWAP1 POP PUSH2 0x6BA PUSH0 DUP4 ADD DUP5 PUSH2 0x698 JUMP JUMPDEST SWAP3 SWAP2 POP POP JUMP JUMPDEST PUSH0 DUP2 SWAP1 POP SWAP2 SWAP1 POP JUMP JUMPDEST PUSH2 0x6D2 DUP2 PUSH2 0x6C0 JUMP JUMPDEST DUP2 EQ PUSH2 0x6DC JUMPI PUSH0 PUSH0 REVERT JUMPDEST POP JUMP JUMPDEST PUSH0 DUP2 CALLDATALOAD SWAP1 POP PUSH2 0x6ED DUP2 PUSH2 0x6C9 JUMP JUMPDEST SWAP3 SWAP2 POP POP JUMP JUMPDEST PUSH0 PUSH1 0x20 DUP3 DUP5 SUB SLT ISZERO PUSH2 0x708 JUMPI PUSH2 0x707 PUSH2 0x604 JUMP JUMPDEST JUMPDEST PUSH0 PUSH2 0x715 DUP5 DUP3 DUP6 ADD PUSH2 0x6DF JUMP JUMPDEST SWAP2 POP POP SWAP3 SWAP2 POP POP JUMP JUMPDEST PUSH0 PUSH1 0xFF DUP3 AND SWAP1 POP SWAP2 SWAP1 POP JUMP JUMPDEST PUSH2 0x733 DUP2 PUSH2 0x71E JUMP JUMPDEST DUP3 MSTORE POP POP JUMP JUMPDEST PUSH0 PUSH1 0x20 DUP3 ADD SWAP1 POP PUSH2 0x74C PUSH0 DUP4 ADD DUP5 PUSH2 0x72A JUMP JUMPDEST SWAP3 SWAP2 POP POP JUMP JUMPDEST PUSH2 0x75B DUP2 PUSH2 0x6C0 JUMP JUMPDEST DUP3 MSTORE POP POP JUMP JUMPDEST PUSH0 PUSH1 0x20 DUP3 ADD SWAP1 POP PUSH2 0x774 PUSH0 DUP4 ADD DUP5 PUSH2 0x752 JUMP JUMPDEST SWAP3 SWAP2 POP POP JUMP JUMPDEST PUSH2 0x783 DUP2 PUSH2 0x5D3 JUMP JUMPDEST DUP2 EQ PUSH2 0x78D JUMPI PUSH0 PUSH0 REVERT JUMPDEST POP JUMP JUMPDEST PUSH0 DUP2 CALLDATALOAD SWAP1 POP PUSH2 0x79E DUP2 PUSH2 0x77A JUMP JUMPDEST SWAP3 SWAP2 POP POP JUMP JUMPDEST PUSH0 PUSH1 0x20 DUP3 DUP5 SUB SLT ISZERO PUSH2 0x7B9 JUMPI PUSH2 0x7B8 PUSH2 0x604 JUMP JUMPDEST JUMPDEST PUSH0 PUSH2 0x7C6 DUP5 DUP3 DUP6 ADD PUSH2 0x790 JUMP JUMPDEST SWAP2 POP POP SWAP3 SWAP2 POP POP JUMP JUMPDEST PUSH32 0x4E487B7100000000000000000000000000000000000000000000000000000000 PUSH0 MSTORE PUSH1 0x11 PUSH1 0x4 MSTORE PUSH1 0x24 PUSH0 REVERT JUMPDEST PUSH0 PUSH2 0x806 DUP3 PUSH2 0x5D3 JUMP JUMPDEST SWAP2 POP PUSH2 0x811 DUP4 PUSH2 0x5D3 JUMP JUMPDEST SWAP3 POP DUP3 DUP3 SUB SWAP1 POP DUP2 DUP2 GT ISZERO PUSH2 0x829 JUMPI PUSH2 0x828 PUSH2 0x7CF JUMP JUMPDEST JUMPDEST SWAP3 SWAP2 POP POP JUMP JUMPDEST PUSH0 DUP3 DUP3 MSTORE PUSH1 0x20 DUP3 ADD SWAP1 POP SWAP3 SWAP2 POP POP JUMP JUMPDEST PUSH32 0x496E76616C69642063616E646964617465000000000000000000000000000000 PUSH0 DUP3 ADD MSTORE POP JUMP JUMPDEST PUSH0 PUSH2 0x873 PUSH1 0x11 DUP4 PUSH2 0x82F JUMP JUMPDEST SWAP2 POP PUSH2 0x87E DUP3 PUSH2 0x83F JUMP JUMPDEST PUSH1 0x20 DUP3 ADD SWAP1 POP SWAP2 SWAP1 POP JUMP JUMPDEST PUSH0 PUSH1 0x20 DUP3 ADD SWAP1 POP DUP2 DUP2 SUB PUSH0 DUP4 ADD MSTORE PUSH2 0x8A0 DUP2 PUSH2 0x867 JUMP JUMPDEST SWAP1 POP SWAP2 SWAP1 POP JUMP JUMPDEST PUSH32 0x4E487B7100000000000000000000000000000000000000000000000000000000 PUSH0 MSTORE PUSH1 0x32 PUSH1 0x4 MSTORE PUSH1 0x24 PUSH0 REVERT JUMPDEST PUSH32 0x566F74696E67206973207374696C6C206F6E676F696E672E2E2E000000000000 PUSH0 DUP3 ADD MSTORE POP JUMP JUMPDEST PUSH0 PUSH2 0x908 PUSH1 0x1A DUP4 PUSH2 0x82F JUMP JUMPDEST SWAP2 POP PUSH2 0x913 DUP3 PUSH2 0x8D4 JUMP JUMPDEST PUSH1 0x20 DUP3 ADD SWAP1 POP SWAP2 SWAP1 POP JUMP JUMPDEST PUSH0 PUSH1 0x20 DUP3 ADD SWAP1 POP DUP2 DUP2 SUB PUSH0 DUP4 ADD MSTORE PUSH2 0x935 DUP2 PUSH2 0x8FC JUMP JUMPDEST SWAP1 POP SWAP2 SWAP1 POP JUMP JUMPDEST PUSH32 0x596F75206861766520616C726561647920766F7465642E000000000000000000 PUSH0 DUP3 ADD MSTORE POP JUMP JUMPDEST PUSH0 PUSH2 0x970 PUSH1 0x17 DUP4 PUSH2 0x82F JUMP JUMPDEST SWAP2 POP PUSH2 0x97B DUP3 PUSH2 0x93C JUMP JUMPDEST PUSH1 0x20 DUP3 ADD SWAP1 POP SWAP2 SWAP1 POP JUMP JUMPDEST PUSH0 PUSH1 0x20 DUP3 ADD SWAP1 POP DUP2 DUP2 SUB PUSH0 DUP4 ADD MSTORE PUSH2 0x99D DUP2 PUSH2 0x964 JUMP JUMPDEST SWAP1 POP SWAP2 SWAP1 POP JUMP JUMPDEST PUSH32 0x496E76616C69642063616E6469646174652E0000000000000000000000000000 PUSH0 DUP3 ADD MSTORE POP JUMP JUMPDEST PUSH0 PUSH2 0x9D8 PUSH1 0x12 DUP4 PUSH2 0x82F JUMP JUMPDEST SWAP2 POP PUSH2 0x9E3 DUP3 PUSH2 0x9A4 JUMP JUMPDEST PUSH1 0x20 DUP3 ADD SWAP1 POP SWAP2 SWAP1 POP JUMP JUMPDEST PUSH0 PUSH1 0x20 DUP3 ADD SWAP1 POP DUP2 DUP2 SUB PUSH0 DUP4 ADD MSTORE PUSH2 0xA05 DUP2 PUSH2 0x9CC JUMP JUMPDEST SWAP1 POP SWAP2 SWAP1 POP JUMP JUMPDEST PUSH0 PUSH2 0xA16 DUP3 PUSH2 0x71E JUMP JUMPDEST SWAP2 POP PUSH2 0xA21 DUP4 PUSH2 0x71E JUMP JUMPDEST SWAP3 POP DUP3 DUP3 ADD SWAP1 POP PUSH1 0xFF DUP2 GT ISZERO PUSH2 0xA3A JUMPI PUSH2 0xA39 PUSH2 0x7CF JUMP JUMPDEST JUMPDEST SWAP3 SWAP2 POP POP JUMP INVALID LOG2 PUSH5 0x6970667358 0x22 SLT KECCAK256 SHR 0xB2 MSTORE 0xFC MSIZE 0xB5 AND 0xC8 0x28 0xD 0xDD BLOBHASH 0xFC 0xB9 BLOBHASH 0x2C PREVRANDAO PUSH15 0xC75E300F68DF31BF8F991F291FB264 PUSH20 0x6F6C634300081E00330000000000000000000000 "
				},
				"gasEstimates": {
					"creation": {
						"codeDepositCost": "535600",
						"executionCost": "infinite",
						"totalCost": "infinite"
					},
					"external": {
						"candidateList(uint256)": "4937",
						"getWinner()": "infinite",
						"hasVoted(address)": "2856",
						"timeLeft()": "infinite",
						"totalVotesFor(bytes32)": "infinite",
						"validCandidate(bytes32)": "infinite",
						"voteForCandidate(bytes32)": "infinite",
						"votesReceived(bytes32)": "2806",
						"votingDeadline()": "2426"
					}
				},
				"methodIdentifiers": {
					"candidateList(uint256)": "b13c744b",
					"getWinner()": "8e7ea5b2",
					"hasVoted(address)": "09eef43e",
					"timeLeft()": "1300a6d1",
					"totalVotesFor(bytes32)": "2f265cf7",
					"validCandidate(bytes32)": "392e6678",
					"voteForCandidate(bytes32)": "cc9ab267",
					"votesReceived(bytes32)": "7021939f",
					"votingDeadline()": "036ee850"
				}
			},
			"storageLayout": {
				"storage": [
					{
						"astId": 5,
						"contract": "voting.sol:Voting",
						"label": "votesReceived",
						"offset": 0,
						"slot": "0",
						"type": "t_mapping(t_bytes32,t_uint8)"
					},
					{
						"astId": 8,
						"contract": "voting.sol:Voting",
						"label": "candidateList",
						"offset": 0,
						"slot": "1",
						"type": "t_array(t_bytes32)dyn_storage"
					},
					{
						"astId": 12,
						"contract": "voting.sol:Voting",
						"label": "hasVoted",
						"offset": 0,
						"slot": "2",
						"type": "t_mapping(t_address,t_bool)"
					},
					{
						"astId": 14,
						"contract": "voting.sol:Voting",
						"label": "votingDeadline",
						"offset": 0,
						"slot": "3",
						"type": "t_uint256"
					}
				],
				"types": {
					"t_address": {
						"encoding": "inplace",
						"label": "address",
						"numberOfBytes": "20"
					},
					"t_array(t_bytes32)dyn_storage": {
						"base": "t_bytes32",
						"encoding": "dynamic_array",
						"label": "bytes32[]",
						"numberOfBytes": "32"
					},
					"t_bool": {
						"encoding": "inplace",
						"label": "bool",
						"numberOfBytes": "1"
					},
					"t_bytes32": {
						"encoding": "inplace",
						"label": "bytes32",
						"numberOfBytes": "32"
					},
					"t_mapping(t_address,t_bool)": {
						"encoding": "mapping",
						"key": "t_address",
						"label": "mapping(address => bool)",
						"numberOfBytes": "32",
						"value": "t_bool"
					},
					"t_mapping(t_bytes32,t_uint8)": {
						"encoding": "mapping",
						"key": "t_bytes32",
						"label": "mapping(bytes32 => uint8)",
						"numberOfBytes": "32",
						"value": "t_uint8"
					},
					"t_uint256": {
						"encoding": "inplace",
						"label": "uint256",
						"numberOfBytes": "32"
					},
					"t_uint8": {
						"encoding": "inplace",
						"label": "uint8",
						"numberOfBytes": "1"
					}
				}
			},
			"userdoc": {
				"kind": "user",
				"methods": {},
				"version": 1
			}
		}
	}
}